{
  "_format": "hh-sol-artifact-1",
  "contractName": "new_vote",
  "sourceName": "contracts/new_vote.sol",
  "abi": [
    {
      "inputs": [
        {
          "internalType": "string",
          "name": "candidateId",
          "type": "string"
        },
        {
          "internalType": "string",
          "name": "eid",
          "type": "string"
        }
      ],
      "name": "getCountOfVotes",
      "outputs": [
        {
          "internalType": "uint256",
          "name": "",
          "type": "uint256"
        }
      ],
      "stateMutability": "view",
      "type": "function"
    },
    {
      "inputs": [
        {
          "internalType": "string",
          "name": "electionId",
          "type": "string"
        }
      ],
      "name": "getVoteCheck",
      "outputs": [
        {
          "internalType": "address[]",
          "name": "",
          "type": "address[]"
        }
      ],
      "stateMutability": "view",
      "type": "function"
    },
    {
      "inputs": [
        {
          "internalType": "string",
          "name": "eid",
          "type": "string"
        }
      ],
      "name": "getVotes",
      "outputs": [
        {
          "components": [
            {
              "internalType": "string",
              "name": "candidateId",
              "type": "string"
            },
            {
              "internalType": "address",
              "name": "voterWalletAddress",
              "type": "address"
            }
          ],
          "internalType": "struct new_vote.Vote[]",
          "name": "",
          "type": "tuple[]"
        }
      ],
      "stateMutability": "view",
      "type": "function"
    },
    {
      "inputs": [
        {
          "internalType": "string",
          "name": "candidateId",
          "type": "string"
        },
        {
          "internalType": "string",
          "name": "eid",
          "type": "string"
        }
      ],
      "name": "giveVote",
      "outputs": [],
      "stateMutability": "nonpayable",
      "type": "function"
    },
    {
      "inputs": [
        {
          "internalType": "string",
          "name": "",
          "type": "string"
        },
        {
          "internalType": "uint256",
          "name": "",
          "type": "uint256"
        }
      ],
      "name": "voteCheck",
      "outputs": [
        {
          "internalType": "address",
          "name": "",
          "type": "address"
        }
      ],
      "stateMutability": "view",
      "type": "function"
    },
    {
      "inputs": [
        {
          "internalType": "address[]",
          "name": "arr",
          "type": "address[]"
        },
        {
          "internalType": "address",
          "name": "element",
          "type": "address"
        }
      ],
      "name": "voterExists",
      "outputs": [
        {
          "internalType": "bool",
          "name": "",
          "type": "bool"
        }
      ],
      "stateMutability": "pure",
      "type": "function"
    },
    {
      "inputs": [
        {
          "internalType": "string",
          "name": "",
          "type": "string"
        },
        {
          "internalType": "uint256",
          "name": "",
          "type": "uint256"
        }
      ],
      "name": "votes",
      "outputs": [
        {
          "internalType": "string",
          "name": "candidateId",
          "type": "string"
        },
        {
          "internalType": "address",
          "name": "voterWalletAddress",
          "type": "address"
        }
      ],
      "stateMutability": "view",
      "type": "function"
    }
  ],
  "bytecode": "0x608060405234801561001057600080fd5b506115b3806100206000396000f3fe608060405234801561001057600080fd5b506004361061007d5760003560e01c80636d5baf151161005b5780636d5baf15146100ff5780637d6c999c1461012f578063805265e51461015f5780639e5cba4d1461018f5761007d565b80630fbeee81146100825780632bc83fb1146100b25780636042ad61146100ce575b600080fd5b61009c60048036038101906100979190610ab8565b6101bf565b6040516100a99190610b2f565b60405180910390f35b6100cc60048036038101906100c79190610bff565b610246565b005b6100e860048036038101906100e39190610cad565b610486565b6040516100f6929190610d97565b60405180910390f35b61011960048036038101906101149190610bff565b610585565b6040516101269190610dd6565b60405180910390f35b61014960048036038101906101449190610df1565b610678565b6040516101569190610ef8565b60405180910390f35b61017960048036038101906101749190610df1565b610724565b6040516101869190611063565b60405180910390f35b6101a960048036038101906101a49190610cad565b610889565b6040516101b69190611085565b60405180910390f35b600080600090505b835181101561023a578273ffffffffffffffffffffffffffffffffffffffff168482815181106101fa576101f96110a0565b5b602002602001015173ffffffffffffffffffffffffffffffffffffffff1603610227576001915050610240565b8080610232906110fe565b9150506101c7565b50600090505b92915050565b6102f26001826040516102599190611182565b90815260200160405180910390208054806020026020016040519081016040528092919081815260200182805480156102e757602002820191906000526020600020905b8160009054906101000a900473ffffffffffffffffffffffffffffffffffffffff1673ffffffffffffffffffffffffffffffffffffffff168152602001906001019080831161029d575b5050505050336101bf565b15610332576040517f08c379a0000000000000000000000000000000000000000000000000000000008152600401610329906111e5565b60405180910390fd5b6000816040516103429190611182565b908152602001604051809103902060405180604001604052808481526020013373ffffffffffffffffffffffffffffffffffffffff16815250908060018154018082558091505060019003906000526020600020906002020160009091909190915060008201518160000190816103b99190611411565b5060208201518160010160006101000a81548173ffffffffffffffffffffffffffffffffffffffff021916908373ffffffffffffffffffffffffffffffffffffffff16021790555050506001816040516104139190611182565b9081526020016040518091039020339080600181540180825580915050600190039060005260206000200160009091909190916101000a81548173ffffffffffffffffffffffffffffffffffffffff021916908373ffffffffffffffffffffffffffffffffffffffff1602179055505050565b60008280516020810182018051848252602083016020850120818352809550505050505081815481106104b857600080fd5b9060005260206000209060020201600091509150508060000180546104dc90611234565b80601f016020809104026020016040519081016040528092919081815260200182805461050890611234565b80156105555780601f1061052a57610100808354040283529160200191610555565b820191906000526020600020905b81548152906001019060200180831161053857829003601f168201915b5050505050908060010160009054906101000a900473ffffffffffffffffffffffffffffffffffffffff16905082565b6000806000905060005b60008460405161059f9190611182565b90815260200160405180910390208054905081101561066d57846040516020016105c99190611182565b604051602081830303815290604052805190602001206000856040516105ef9190611182565b9081526020016040518091039020828154811061060f5761060e6110a0565b5b90600052602060002090600202016000016040516020016106309190611566565b604051602081830303815290604052805190602001200361065a578180610656906110fe565b9250505b8080610665906110fe565b91505061058f565b508091505092915050565b606060018260405161068a9190611182565b908152602001604051809103902080548060200260200160405190810160405280929190818152602001828054801561071857602002820191906000526020600020905b8160009054906101000a900473ffffffffffffffffffffffffffffffffffffffff1673ffffffffffffffffffffffffffffffffffffffff16815260200190600101908083116106ce575b50505050509050919050565b60606000826040516107369190611182565b9081526020016040518091039020805480602002602001604051908101604052809291908181526020016000905b8282101561087e578382906000526020600020906002020160405180604001604052908160008201805461079790611234565b80601f01602080910402602001604051908101604052809291908181526020018280546107c390611234565b80156108105780601f106107e557610100808354040283529160200191610810565b820191906000526020600020905b8154815290600101906020018083116107f357829003601f168201915b505050505081526020016001820160009054906101000a900473ffffffffffffffffffffffffffffffffffffffff1673ffffffffffffffffffffffffffffffffffffffff1673ffffffffffffffffffffffffffffffffffffffff168152505081526020019060010190610764565b505050509050919050565b60018280516020810182018051848252602083016020850120818352809550505050505081815481106108bb57600080fd5b906000526020600020016000915091509054906101000a900473ffffffffffffffffffffffffffffffffffffffff1681565b6000604051905090565b600080fd5b600080fd5b600080fd5b6000601f19601f8301169050919050565b7f4e487b7100000000000000000000000000000000000000000000000000000000600052604160045260246000fd5b61094f82610906565b810181811067ffffffffffffffff8211171561096e5761096d610917565b5b80604052505050565b60006109816108ed565b905061098d8282610946565b919050565b600067ffffffffffffffff8211156109ad576109ac610917565b5b602082029050602081019050919050565b600080fd5b600073ffffffffffffffffffffffffffffffffffffffff82169050919050565b60006109ee826109c3565b9050919050565b6109fe816109e3565b8114610a0957600080fd5b50565b600081359050610a1b816109f5565b92915050565b6000610a34610a2f84610992565b610977565b90508083825260208201905060208402830185811115610a5757610a566109be565b5b835b81811015610a805780610a6c8882610a0c565b845260208401935050602081019050610a59565b5050509392505050565b600082601f830112610a9f57610a9e610901565b5b8135610aaf848260208601610a21565b91505092915050565b60008060408385031215610acf57610ace6108f7565b5b600083013567ffffffffffffffff811115610aed57610aec6108fc565b5b610af985828601610a8a565b9250506020610b0a85828601610a0c565b9150509250929050565b60008115159050919050565b610b2981610b14565b82525050565b6000602082019050610b446000830184610b20565b92915050565b600080fd5b600067ffffffffffffffff821115610b6a57610b69610917565b5b610b7382610906565b9050602081019050919050565b82818337600083830152505050565b6000610ba2610b9d84610b4f565b610977565b905082815260208101848484011115610bbe57610bbd610b4a565b5b610bc9848285610b80565b509392505050565b600082601f830112610be657610be5610901565b5b8135610bf6848260208601610b8f565b91505092915050565b60008060408385031215610c1657610c156108f7565b5b600083013567ffffffffffffffff811115610c3457610c336108fc565b5b610c4085828601610bd1565b925050602083013567ffffffffffffffff811115610c6157610c606108fc565b5b610c6d85828601610bd1565b9150509250929050565b6000819050919050565b610c8a81610c77565b8114610c9557600080fd5b50565b600081359050610ca781610c81565b92915050565b60008060408385031215610cc457610cc36108f7565b5b600083013567ffffffffffffffff811115610ce257610ce16108fc565b5b610cee85828601610bd1565b9250506020610cff85828601610c98565b9150509250929050565b600081519050919050565b600082825260208201905092915050565b60005b83811015610d43578082015181840152602081019050610d28565b60008484015250505050565b6000610d5a82610d09565b610d648185610d14565b9350610d74818560208601610d25565b610d7d81610906565b840191505092915050565b610d91816109e3565b82525050565b60006040820190508181036000830152610db18185610d4f565b9050610dc06020830184610d88565b9392505050565b610dd081610c77565b82525050565b6000602082019050610deb6000830184610dc7565b92915050565b600060208284031215610e0757610e066108f7565b5b600082013567ffffffffffffffff811115610e2557610e246108fc565b5b610e3184828501610bd1565b91505092915050565b600081519050919050565b600082825260208201905092915050565b6000819050602082019050919050565b610e6f816109e3565b82525050565b6000610e818383610e66565b60208301905092915050565b6000602082019050919050565b6000610ea582610e3a565b610eaf8185610e45565b9350610eba83610e56565b8060005b83811015610eeb578151610ed28882610e75565b9750610edd83610e8d565b925050600181019050610ebe565b5085935050505092915050565b60006020820190508181036000830152610f128184610e9a565b905092915050565b600081519050919050565b600082825260208201905092915050565b6000819050602082019050919050565b600082825260208201905092915050565b6000610f6282610d09565b610f6c8185610f46565b9350610f7c818560208601610d25565b610f8581610906565b840191505092915050565b60006040830160008301518482036000860152610fad8282610f57565b9150506020830151610fc26020860182610e66565b508091505092915050565b6000610fd98383610f90565b905092915050565b6000602082019050919050565b6000610ff982610f1a565b6110038185610f25565b93508360208202850161101585610f36565b8060005b8581101561105157848403895281516110328582610fcd565b945061103d83610fe1565b925060208a01995050600181019050611019565b50829750879550505050505092915050565b6000602082019050818103600083015261107d8184610fee565b905092915050565b600060208201905061109a6000830184610d88565b92915050565b7f4e487b7100000000000000000000000000000000000000000000000000000000600052603260045260246000fd5b7f4e487b7100000000000000000000000000000000000000000000000000000000600052601160045260246000fd5b600061110982610c77565b91507fffffffffffffffffffffffffffffffffffffffffffffffffffffffffffffffff820361113b5761113a6110cf565b5b600182019050919050565b600081905092915050565b600061115c82610d09565b6111668185611146565b9350611176818560208601610d25565b80840191505092915050565b600061118e8284611151565b915081905092915050565b7f596f75206861766520616c726561647920766f74656400000000000000000000600082015250565b60006111cf601683610d14565b91506111da82611199565b602082019050919050565b600060208201905081810360008301526111fe816111c2565b9050919050565b7f4e487b7100000000000000000000000000000000000000000000000000000000600052602260045260246000fd5b6000600282049050600182168061124c57607f821691505b60208210810361125f5761125e611205565b5b50919050565b60008190508160005260206000209050919050565b60006020601f8301049050919050565b600082821b905092915050565b6000600883026112c77fffffffffffffffffffffffffffffffffffffffffffffffffffffffffffffffff8261128a565b6112d1868361128a565b95508019841693508086168417925050509392505050565b6000819050919050565b600061130e61130961130484610c77565b6112e9565b610c77565b9050919050565b6000819050919050565b611328836112f3565b61133c61133482611315565b848454611297565b825550505050565b600090565b611351611344565b61135c81848461131f565b505050565b5b8181101561138057611375600082611349565b600181019050611362565b5050565b601f8211156113c55761139681611265565b61139f8461127a565b810160208510156113ae578190505b6113c26113ba8561127a565b830182611361565b50505b505050565b600082821c905092915050565b60006113e8600019846008026113ca565b1980831691505092915050565b600061140183836113d7565b9150826002028217905092915050565b61141a82610d09565b67ffffffffffffffff81111561143357611432610917565b5b61143d8254611234565b611448828285611384565b600060209050601f83116001811461147b5760008415611469578287015190505b61147385826113f5565b8655506114db565b601f19841661148986611265565b60005b828110156114b15784890151825560018201915060208501945060208101905061148c565b868310156114ce57848901516114ca601f8916826113d7565b8355505b6001600288020188555050505b505050505050565b600081546114f081611234565b6114fa8186611146565b94506001821660008114611515576001811461152a5761155d565b60ff198316865281151582028601935061155d565b61153385611265565b60005b8381101561155557815481890152600182019150602081019050611536565b838801955050505b50505092915050565b600061157282846114e3565b91508190509291505056fea26469706673582212209f0f899a3ad4f6ea4aacf792315366e69a8c66d0cf3fe5b10cdcb98973dc8c5964736f6c63430008120033",
  "linkReferences": {},
  "deployedLinkReferences": {}
}