{
  "_format": "hh-sol-artifact-1",
  "contractName": "new_vote",
  "sourceName": "contracts/new_vote.sol",
  "abi": [
    {
      "inputs": [
        {
          "internalType": "string",
          "name": "candidateId",
          "type": "string"
        }
      ],
      "name": "getCountOfVotes",
      "outputs": [
        {
          "internalType": "uint256",
          "name": "",
          "type": "uint256"
        }
      ],
      "stateMutability": "view",
      "type": "function"
    },
    {
      "inputs": [
        {
          "internalType": "string",
          "name": "electionId",
          "type": "string"
        }
      ],
      "name": "getVoteCheck",
      "outputs": [
        {
          "internalType": "address[]",
          "name": "",
          "type": "address[]"
        }
      ],
      "stateMutability": "view",
      "type": "function"
    },
    {
      "inputs": [],
      "name": "getVotes",
      "outputs": [
        {
          "components": [
            {
              "internalType": "string",
              "name": "candidateId",
              "type": "string"
            },
            {
              "internalType": "address",
              "name": "voterWalletAddress",
              "type": "address"
            }
          ],
          "internalType": "struct new_vote.Vote[]",
          "name": "",
          "type": "tuple[]"
        }
      ],
      "stateMutability": "view",
      "type": "function"
    },
    {
      "inputs": [
        {
          "internalType": "string",
          "name": "candidateId",
          "type": "string"
        },
        {
          "internalType": "string",
          "name": "eid",
          "type": "string"
        }
      ],
      "name": "giveVote",
      "outputs": [],
      "stateMutability": "nonpayable",
      "type": "function"
    },
    {
      "inputs": [
        {
          "internalType": "string",
          "name": "",
          "type": "string"
        },
        {
          "internalType": "uint256",
          "name": "",
          "type": "uint256"
        }
      ],
      "name": "voteCheck",
      "outputs": [
        {
          "internalType": "address",
          "name": "",
          "type": "address"
        }
      ],
      "stateMutability": "view",
      "type": "function"
    },
    {
      "inputs": [
        {
          "internalType": "address[]",
          "name": "arr",
          "type": "address[]"
        },
        {
          "internalType": "address",
          "name": "element",
          "type": "address"
        }
      ],
      "name": "voterExists",
      "outputs": [
        {
          "internalType": "bool",
          "name": "",
          "type": "bool"
        }
      ],
      "stateMutability": "pure",
      "type": "function"
    }
  ],
  "bytecode": "0x608060405234801561001057600080fd5b5061137a806100206000396000f3fe608060405234801561001057600080fd5b50600436106100625760003560e01c80630dc96015146100675780630fbeee81146100855780632bc83fb1146100b557806378a1cd6d146100d15780637d6c999c146101015780639e5cba4d14610131575b600080fd5b61006f610161565b60405161007c91906108ed565b60405180910390f35b61009f600480360381019061009a9190610a97565b6102a8565b6040516100ac9190610b0e565b60405180910390f35b6100cf60048036038101906100ca9190610bde565b61032f565b005b6100eb60048036038101906100e69190610c56565b610553565b6040516100f89190610cb8565b60405180910390f35b61011b60048036038101906101169190610c56565b61060d565b6040516101289190610d82565b60405180910390f35b61014b60048036038101906101469190610dd0565b6106b9565b6040516101589190610e3b565b60405180910390f35b60606000805480602002602001604051908101604052809291908181526020016000905b8282101561029f57838290600052602060002090600202016040518060400160405290816000820180546101b890610e85565b80601f01602080910402602001604051908101604052809291908181526020018280546101e490610e85565b80156102315780601f1061020657610100808354040283529160200191610231565b820191906000526020600020905b81548152906001019060200180831161021457829003601f168201915b505050505081526020016001820160009054906101000a900473ffffffffffffffffffffffffffffffffffffffff1673ffffffffffffffffffffffffffffffffffffffff1673ffffffffffffffffffffffffffffffffffffffff168152505081526020019060010190610185565b50505050905090565b600080600090505b8351811015610323578273ffffffffffffffffffffffffffffffffffffffff168482815181106102e3576102e2610eb6565b5b602002602001015173ffffffffffffffffffffffffffffffffffffffff1603610310576001915050610329565b808061031b90610f14565b9150506102b0565b50600090505b92915050565b6103db6001826040516103429190610f98565b90815260200160405180910390208054806020026020016040519081016040528092919081815260200182805480156103d057602002820191906000526020600020905b8160009054906101000a900473ffffffffffffffffffffffffffffffffffffffff1673ffffffffffffffffffffffffffffffffffffffff1681526020019060010190808311610386575b5050505050336102a8565b1561041b576040517f08c379a00000000000000000000000000000000000000000000000000000000081526004016104129061100c565b60405180910390fd5b600060405180604001604052808481526020013373ffffffffffffffffffffffffffffffffffffffff168152509080600181540180825580915050600190039060005260206000209060020201600090919091909150600082015181600001908161048691906111d8565b5060208201518160010160006101000a81548173ffffffffffffffffffffffffffffffffffffffff021916908373ffffffffffffffffffffffffffffffffffffffff16021790555050506001816040516104e09190610f98565b9081526020016040518091039020339080600181540180825580915050600190039060005260206000200160009091909190916101000a81548173ffffffffffffffffffffffffffffffffffffffff021916908373ffffffffffffffffffffffffffffffffffffffff1602179055505050565b6000806000905060005b600080549050811015610603578360405160200161057b9190610f98565b60405160208183030381529060405280519060200120600082815481106105a5576105a4610eb6565b5b90600052602060002090600202016000016040516020016105c6919061132d565b60405160208183030381529060405280519060200120036105f05781806105ec90610f14565b9250505b80806105fb90610f14565b91505061055d565b5080915050919050565b606060018260405161061f9190610f98565b90815260200160405180910390208054806020026020016040519081016040528092919081815260200182805480156106ad57602002820191906000526020600020905b8160009054906101000a900473ffffffffffffffffffffffffffffffffffffffff1673ffffffffffffffffffffffffffffffffffffffff1681526020019060010190808311610663575b50505050509050919050565b60018280516020810182018051848252602083016020850120818352809550505050505081815481106106eb57600080fd5b906000526020600020016000915091509054906101000a900473ffffffffffffffffffffffffffffffffffffffff1681565b600081519050919050565b600082825260208201905092915050565b6000819050602082019050919050565b600081519050919050565b600082825260208201905092915050565b60005b83811015610783578082015181840152602081019050610768565b60008484015250505050565b6000601f19601f8301169050919050565b60006107ab82610749565b6107b58185610754565b93506107c5818560208601610765565b6107ce8161078f565b840191505092915050565b600073ffffffffffffffffffffffffffffffffffffffff82169050919050565b6000610804826107d9565b9050919050565b610814816107f9565b82525050565b6000604083016000830151848203600086015261083782826107a0565b915050602083015161084c602086018261080b565b508091505092915050565b6000610863838361081a565b905092915050565b6000602082019050919050565b60006108838261071d565b61088d8185610728565b93508360208202850161089f85610739565b8060005b858110156108db57848403895281516108bc8582610857565b94506108c78361086b565b925060208a019950506001810190506108a3565b50829750879550505050505092915050565b600060208201905081810360008301526109078184610878565b905092915050565b6000604051905090565b600080fd5b600080fd5b600080fd5b7f4e487b7100000000000000000000000000000000000000000000000000000000600052604160045260246000fd5b6109608261078f565b810181811067ffffffffffffffff8211171561097f5761097e610928565b5b80604052505050565b600061099261090f565b905061099e8282610957565b919050565b600067ffffffffffffffff8211156109be576109bd610928565b5b602082029050602081019050919050565b600080fd5b6109dd816107f9565b81146109e857600080fd5b50565b6000813590506109fa816109d4565b92915050565b6000610a13610a0e846109a3565b610988565b90508083825260208201905060208402830185811115610a3657610a356109cf565b5b835b81811015610a5f5780610a4b88826109eb565b845260208401935050602081019050610a38565b5050509392505050565b600082601f830112610a7e57610a7d610923565b5b8135610a8e848260208601610a00565b91505092915050565b60008060408385031215610aae57610aad610919565b5b600083013567ffffffffffffffff811115610acc57610acb61091e565b5b610ad885828601610a69565b9250506020610ae9858286016109eb565b9150509250929050565b60008115159050919050565b610b0881610af3565b82525050565b6000602082019050610b236000830184610aff565b92915050565b600080fd5b600067ffffffffffffffff821115610b4957610b48610928565b5b610b528261078f565b9050602081019050919050565b82818337600083830152505050565b6000610b81610b7c84610b2e565b610988565b905082815260208101848484011115610b9d57610b9c610b29565b5b610ba8848285610b5f565b509392505050565b600082601f830112610bc557610bc4610923565b5b8135610bd5848260208601610b6e565b91505092915050565b60008060408385031215610bf557610bf4610919565b5b600083013567ffffffffffffffff811115610c1357610c1261091e565b5b610c1f85828601610bb0565b925050602083013567ffffffffffffffff811115610c4057610c3f61091e565b5b610c4c85828601610bb0565b9150509250929050565b600060208284031215610c6c57610c6b610919565b5b600082013567ffffffffffffffff811115610c8a57610c8961091e565b5b610c9684828501610bb0565b91505092915050565b6000819050919050565b610cb281610c9f565b82525050565b6000602082019050610ccd6000830184610ca9565b92915050565b600081519050919050565b600082825260208201905092915050565b6000819050602082019050919050565b6000610d0b838361080b565b60208301905092915050565b6000602082019050919050565b6000610d2f82610cd3565b610d398185610cde565b9350610d4483610cef565b8060005b83811015610d75578151610d5c8882610cff565b9750610d6783610d17565b925050600181019050610d48565b5085935050505092915050565b60006020820190508181036000830152610d9c8184610d24565b905092915050565b610dad81610c9f565b8114610db857600080fd5b50565b600081359050610dca81610da4565b92915050565b60008060408385031215610de757610de6610919565b5b600083013567ffffffffffffffff811115610e0557610e0461091e565b5b610e1185828601610bb0565b9250506020610e2285828601610dbb565b9150509250929050565b610e35816107f9565b82525050565b6000602082019050610e506000830184610e2c565b92915050565b7f4e487b7100000000000000000000000000000000000000000000000000000000600052602260045260246000fd5b60006002820490506001821680610e9d57607f821691505b602082108103610eb057610eaf610e56565b5b50919050565b7f4e487b7100000000000000000000000000000000000000000000000000000000600052603260045260246000fd5b7f4e487b7100000000000000000000000000000000000000000000000000000000600052601160045260246000fd5b6000610f1f82610c9f565b91507fffffffffffffffffffffffffffffffffffffffffffffffffffffffffffffffff8203610f5157610f50610ee5565b5b600182019050919050565b600081905092915050565b6000610f7282610749565b610f7c8185610f5c565b9350610f8c818560208601610765565b80840191505092915050565b6000610fa48284610f67565b915081905092915050565b600082825260208201905092915050565b7f596f75206861766520616c726561647920766f74656400000000000000000000600082015250565b6000610ff6601683610faf565b915061100182610fc0565b602082019050919050565b6000602082019050818103600083015261102581610fe9565b9050919050565b60008190508160005260206000209050919050565b60006020601f8301049050919050565b600082821b905092915050565b60006008830261108e7fffffffffffffffffffffffffffffffffffffffffffffffffffffffffffffffff82611051565b6110988683611051565b95508019841693508086168417925050509392505050565b6000819050919050565b60006110d56110d06110cb84610c9f565b6110b0565b610c9f565b9050919050565b6000819050919050565b6110ef836110ba565b6111036110fb826110dc565b84845461105e565b825550505050565b600090565b61111861110b565b6111238184846110e6565b505050565b5b818110156111475761113c600082611110565b600181019050611129565b5050565b601f82111561118c5761115d8161102c565b61116684611041565b81016020851015611175578190505b61118961118185611041565b830182611128565b50505b505050565b600082821c905092915050565b60006111af60001984600802611191565b1980831691505092915050565b60006111c8838361119e565b9150826002028217905092915050565b6111e182610749565b67ffffffffffffffff8111156111fa576111f9610928565b5b6112048254610e85565b61120f82828561114b565b600060209050601f8311600181146112425760008415611230578287015190505b61123a85826111bc565b8655506112a2565b601f1984166112508661102c565b60005b8281101561127857848901518255600182019150602085019450602081019050611253565b868310156112955784890151611291601f89168261119e565b8355505b6001600288020188555050505b505050505050565b600081546112b781610e85565b6112c18186610f5c565b945060018216600081146112dc57600181146112f157611324565b60ff1983168652811515820286019350611324565b6112fa8561102c565b60005b8381101561131c578154818901526001820191506020810190506112fd565b838801955050505b50505092915050565b600061133982846112aa565b91508190509291505056fea26469706673582212201d4693d4b378054bc9f09e82596f3d637e4925530051a678f7494589568d61b964736f6c63430008120033",
  "linkReferences": {},
  "deployedLinkReferences": {}
}