{
  "_format": "hh-sol-artifact-1",
  "contractName": "new_vote",
  "sourceName": "contracts/new_vote.sol",
  "abi": [
    {
      "inputs": [
        {
          "internalType": "string",
          "name": "candidateId",
          "type": "string"
        },
        {
          "internalType": "string",
          "name": "eid",
          "type": "string"
        }
      ],
      "name": "getCountOfVotes",
      "outputs": [
        {
          "internalType": "uint256",
          "name": "",
          "type": "uint256"
        }
      ],
      "stateMutability": "view",
      "type": "function"
    },
    {
      "inputs": [
        {
          "internalType": "string",
          "name": "electionId",
          "type": "string"
        }
      ],
      "name": "getVoteCheck",
      "outputs": [
        {
          "internalType": "address[]",
          "name": "",
          "type": "address[]"
        }
      ],
      "stateMutability": "view",
      "type": "function"
    },
    {
      "inputs": [
        {
          "internalType": "string",
          "name": "eid",
          "type": "string"
        }
      ],
      "name": "getVotes",
      "outputs": [
        {
          "components": [
            {
              "internalType": "string",
              "name": "candidateId",
              "type": "string"
            },
            {
              "internalType": "address",
              "name": "voterWalletAddress",
              "type": "address"
            }
          ],
          "internalType": "struct new_vote.Vote[]",
          "name": "",
          "type": "tuple[]"
        }
      ],
      "stateMutability": "view",
      "type": "function"
    },
    {
      "inputs": [
        {
          "internalType": "string",
          "name": "candidateId",
          "type": "string"
        },
        {
          "internalType": "string",
          "name": "eid",
          "type": "string"
        }
      ],
      "name": "giveVote",
      "outputs": [],
      "stateMutability": "nonpayable",
      "type": "function"
    },
    {
      "inputs": [
        {
          "internalType": "string",
          "name": "",
          "type": "string"
        },
        {
          "internalType": "uint256",
          "name": "",
          "type": "uint256"
        }
      ],
      "name": "voteCheck",
      "outputs": [
        {
          "internalType": "address",
          "name": "",
          "type": "address"
        }
      ],
      "stateMutability": "view",
      "type": "function"
    },
    {
      "inputs": [
        {
          "internalType": "address[]",
          "name": "arr",
          "type": "address[]"
        },
        {
          "internalType": "address",
          "name": "element",
          "type": "address"
        }
      ],
      "name": "voterExists",
      "outputs": [
        {
          "internalType": "bool",
          "name": "",
          "type": "bool"
        }
      ],
      "stateMutability": "pure",
      "type": "function"
    },
    {
      "inputs": [
        {
          "internalType": "string",
          "name": "",
          "type": "string"
        },
        {
          "internalType": "uint256",
          "name": "",
          "type": "uint256"
        }
      ],
      "name": "votes",
      "outputs": [
        {
          "internalType": "string",
          "name": "candidateId",
          "type": "string"
        },
        {
          "internalType": "address",
          "name": "voterWalletAddress",
          "type": "address"
        }
      ],
      "stateMutability": "view",
      "type": "function"
    }
  ],
  "bytecode": "0x608060405234801561001057600080fd5b506113fd806100206000396000f3fe608060405234801561001057600080fd5b506004361061007d5760003560e01c80636d5baf151161005b5780636d5baf15146100ff5780637d6c999c1461012f578063805265e51461015f5780639e5cba4d1461018f5761007d565b80630fbeee81146100825780632bc83fb1146100b25780636042ad61146100ce575b600080fd5b61009c60048036038101906100979190610b64565b6101bf565b6040516100a99190610bdb565b60405180910390f35b6100cc60048036038101906100c79190610cab565b610247565b005b6100e860048036038101906100e39190610d59565b61048e565b6040516100f6929190610e4c565b60405180910390f35b61011960048036038101906101149190610cab565b61058d565b6040516101269190610e8b565b60405180910390f35b61014960048036038101906101449190610ea6565b610681565b6040516101569190610fad565b60405180910390f35b61017960048036038101906101749190610ea6565b61072d565b6040516101869190611118565b60405180910390f35b6101a960048036038101906101a49190610d59565b610892565b6040516101b6919061113a565b60405180910390f35b600080600090505b835181101561023b578273ffffffffffffffffffffffffffffffffffffffff168482815181106101fa576101f9611155565b5b602002602001015173ffffffffffffffffffffffffffffffffffffffff161415610228576001915050610241565b8080610233906111b3565b9150506101c7565b50600090505b92915050565b6102f360018260405161025a9190611238565b90815260200160405180910390208054806020026020016040519081016040528092919081815260200182805480156102e857602002820191906000526020600020905b8160009054906101000a900473ffffffffffffffffffffffffffffffffffffffff1673ffffffffffffffffffffffffffffffffffffffff168152602001906001019080831161029e575b5050505050336101bf565b15610333576040517f08c379a000000000000000000000000000000000000000000000000000000000815260040161032a9061129b565b60405180910390fd5b6000816040516103439190611238565b908152602001604051809103902060405180604001604052808481526020013373ffffffffffffffffffffffffffffffffffffffff16815250908060018154018082558091505060019003906000526020600020906002020160009091909190915060008201518160000190805190602001906103c19291906108f6565b5060208201518160010160006101000a81548173ffffffffffffffffffffffffffffffffffffffff021916908373ffffffffffffffffffffffffffffffffffffffff160217905550505060018160405161041b9190611238565b9081526020016040518091039020339080600181540180825580915050600190039060005260206000200160009091909190916101000a81548173ffffffffffffffffffffffffffffffffffffffff021916908373ffffffffffffffffffffffffffffffffffffffff1602179055505050565b60008280516020810182018051848252602083016020850120818352809550505050505081815481106104c057600080fd5b9060005260206000209060020201600091509150508060000180546104e4906112ea565b80601f0160208091040260200160405190810160405280929190818152602001828054610510906112ea565b801561055d5780601f106105325761010080835404028352916020019161055d565b820191906000526020600020905b81548152906001019060200180831161054057829003601f168201915b5050505050908060010160009054906101000a900473ffffffffffffffffffffffffffffffffffffffff16905082565b6000806000905060005b6000846040516105a79190611238565b90815260200160405180910390208054905081101561067657846040516020016105d19190611238565b604051602081830303815290604052805190602001206000856040516105f79190611238565b9081526020016040518091039020828154811061061757610616611155565b5b906000526020600020906002020160000160405160200161063891906113b0565b60405160208183030381529060405280519060200120141561066357818061065f906111b3565b9250505b808061066e906111b3565b915050610597565b508091505092915050565b60606001826040516106939190611238565b908152602001604051809103902080548060200260200160405190810160405280929190818152602001828054801561072157602002820191906000526020600020905b8160009054906101000a900473ffffffffffffffffffffffffffffffffffffffff1673ffffffffffffffffffffffffffffffffffffffff16815260200190600101908083116106d7575b50505050509050919050565b606060008260405161073f9190611238565b9081526020016040518091039020805480602002602001604051908101604052809291908181526020016000905b8282101561088757838290600052602060002090600202016040518060400160405290816000820180546107a0906112ea565b80601f01602080910402602001604051908101604052809291908181526020018280546107cc906112ea565b80156108195780601f106107ee57610100808354040283529160200191610819565b820191906000526020600020905b8154815290600101906020018083116107fc57829003601f168201915b505050505081526020016001820160009054906101000a900473ffffffffffffffffffffffffffffffffffffffff1673ffffffffffffffffffffffffffffffffffffffff1673ffffffffffffffffffffffffffffffffffffffff16815250508152602001906001019061076d565b505050509050919050565b60018280516020810182018051848252602083016020850120818352809550505050505081815481106108c457600080fd5b906000526020600020016000915091509054906101000a900473ffffffffffffffffffffffffffffffffffffffff1681565b828054610902906112ea565b90600052602060002090601f016020900481019282610924576000855561096b565b82601f1061093d57805160ff191683800117855561096b565b8280016001018555821561096b579182015b8281111561096a57825182559160200191906001019061094f565b5b509050610978919061097c565b5090565b5b8082111561099557600081600090555060010161097d565b5090565b6000604051905090565b600080fd5b600080fd5b600080fd5b6000601f19601f8301169050919050565b7f4e487b7100000000000000000000000000000000000000000000000000000000600052604160045260246000fd5b6109fb826109b2565b810181811067ffffffffffffffff82111715610a1a57610a196109c3565b5b80604052505050565b6000610a2d610999565b9050610a3982826109f2565b919050565b600067ffffffffffffffff821115610a5957610a586109c3565b5b602082029050602081019050919050565b600080fd5b600073ffffffffffffffffffffffffffffffffffffffff82169050919050565b6000610a9a82610a6f565b9050919050565b610aaa81610a8f565b8114610ab557600080fd5b50565b600081359050610ac781610aa1565b92915050565b6000610ae0610adb84610a3e565b610a23565b90508083825260208201905060208402830185811115610b0357610b02610a6a565b5b835b81811015610b2c5780610b188882610ab8565b845260208401935050602081019050610b05565b5050509392505050565b600082601f830112610b4b57610b4a6109ad565b5b8135610b5b848260208601610acd565b91505092915050565b60008060408385031215610b7b57610b7a6109a3565b5b600083013567ffffffffffffffff811115610b9957610b986109a8565b5b610ba585828601610b36565b9250506020610bb685828601610ab8565b9150509250929050565b60008115159050919050565b610bd581610bc0565b82525050565b6000602082019050610bf06000830184610bcc565b92915050565b600080fd5b600067ffffffffffffffff821115610c1657610c156109c3565b5b610c1f826109b2565b9050602081019050919050565b82818337600083830152505050565b6000610c4e610c4984610bfb565b610a23565b905082815260208101848484011115610c6a57610c69610bf6565b5b610c75848285610c2c565b509392505050565b600082601f830112610c9257610c916109ad565b5b8135610ca2848260208601610c3b565b91505092915050565b60008060408385031215610cc257610cc16109a3565b5b600083013567ffffffffffffffff811115610ce057610cdf6109a8565b5b610cec85828601610c7d565b925050602083013567ffffffffffffffff811115610d0d57610d0c6109a8565b5b610d1985828601610c7d565b9150509250929050565b6000819050919050565b610d3681610d23565b8114610d4157600080fd5b50565b600081359050610d5381610d2d565b92915050565b60008060408385031215610d7057610d6f6109a3565b5b600083013567ffffffffffffffff811115610d8e57610d8d6109a8565b5b610d9a85828601610c7d565b9250506020610dab85828601610d44565b9150509250929050565b600081519050919050565b600082825260208201905092915050565b60005b83811015610def578082015181840152602081019050610dd4565b83811115610dfe576000848401525b50505050565b6000610e0f82610db5565b610e198185610dc0565b9350610e29818560208601610dd1565b610e32816109b2565b840191505092915050565b610e4681610a8f565b82525050565b60006040820190508181036000830152610e668185610e04565b9050610e756020830184610e3d565b9392505050565b610e8581610d23565b82525050565b6000602082019050610ea06000830184610e7c565b92915050565b600060208284031215610ebc57610ebb6109a3565b5b600082013567ffffffffffffffff811115610eda57610ed96109a8565b5b610ee684828501610c7d565b91505092915050565b600081519050919050565b600082825260208201905092915050565b6000819050602082019050919050565b610f2481610a8f565b82525050565b6000610f368383610f1b565b60208301905092915050565b6000602082019050919050565b6000610f5a82610eef565b610f648185610efa565b9350610f6f83610f0b565b8060005b83811015610fa0578151610f878882610f2a565b9750610f9283610f42565b925050600181019050610f73565b5085935050505092915050565b60006020820190508181036000830152610fc78184610f4f565b905092915050565b600081519050919050565b600082825260208201905092915050565b6000819050602082019050919050565b600082825260208201905092915050565b600061101782610db5565b6110218185610ffb565b9350611031818560208601610dd1565b61103a816109b2565b840191505092915050565b60006040830160008301518482036000860152611062828261100c565b91505060208301516110776020860182610f1b565b508091505092915050565b600061108e8383611045565b905092915050565b6000602082019050919050565b60006110ae82610fcf565b6110b88185610fda565b9350836020820285016110ca85610feb565b8060005b8581101561110657848403895281516110e78582611082565b94506110f283611096565b925060208a019950506001810190506110ce565b50829750879550505050505092915050565b6000602082019050818103600083015261113281846110a3565b905092915050565b600060208201905061114f6000830184610e3d565b92915050565b7f4e487b7100000000000000000000000000000000000000000000000000000000600052603260045260246000fd5b7f4e487b7100000000000000000000000000000000000000000000000000000000600052601160045260246000fd5b60006111be82610d23565b91507fffffffffffffffffffffffffffffffffffffffffffffffffffffffffffffffff8214156111f1576111f0611184565b5b600182019050919050565b600081905092915050565b600061121282610db5565b61121c81856111fc565b935061122c818560208601610dd1565b80840191505092915050565b60006112448284611207565b915081905092915050565b7f596f75206861766520616c726561647920766f74656400000000000000000000600082015250565b6000611285601683610dc0565b91506112908261124f565b602082019050919050565b600060208201905081810360008301526112b481611278565b9050919050565b7f4e487b7100000000000000000000000000000000000000000000000000000000600052602260045260246000fd5b6000600282049050600182168061130257607f821691505b60208210811415611316576113156112bb565b5b50919050565b60008190508160005260206000209050919050565b6000815461133e816112ea565b61134881866111fc565b945060018216600081146113635760018114611374576113a7565b60ff198316865281860193506113a7565b61137d8561131c565b60005b8381101561139f57815481890152600182019150602081019050611380565b838801955050505b50505092915050565b60006113bc8284611331565b91508190509291505056fea2646970667358221220ab9c413473a75dcb00bfead59385eed0cd1733e36dea2693b3c991a552a2d7f164736f6c63430008090033",
  "linkReferences": {},
  "deployedLinkReferences": {}
}