{"contracts/new_vote.sol":{"new_vote":{"abi":[{"inputs":[{"internalType":"string","name":"candidateId","type":"string"}],"name":"getCountOfVotes","outputs":[{"internalType":"uint256","name":"","type":"uint256"}],"stateMutability":"view","type":"function"},{"inputs":[{"internalType":"string","name":"electionId","type":"string"}],"name":"getVoteCheck","outputs":[{"internalType":"address[]","name":"","type":"address[]"}],"stateMutability":"view","type":"function"},{"inputs":[],"name":"getVotes","outputs":[{"components":[{"internalType":"string","name":"candidateId","type":"string"},{"internalType":"address","name":"voterWalletAddress","type":"address"}],"internalType":"struct new_vote.Vote[]","name":"","type":"tuple[]"}],"stateMutability":"view","type":"function"},{"inputs":[{"internalType":"string","name":"candidateId","type":"string"},{"internalType":"string","name":"eid","type":"string"}],"name":"giveVote","outputs":[],"stateMutability":"nonpayable","type":"function"},{"inputs":[{"internalType":"string","name":"","type":"string"},{"internalType":"uint256","name":"","type":"uint256"}],"name":"voteCheck","outputs":[{"internalType":"address","name":"","type":"address"}],"stateMutability":"view","type":"function"},{"inputs":[{"internalType":"address[]","name":"arr","type":"address[]"},{"internalType":"address","name":"element","type":"address"}],"name":"voterExists","outputs":[{"internalType":"bool","name":"","type":"bool"}],"stateMutability":"pure","type":"function"}],"evm":{"bytecode":{"linkReferences":{},"object":"608060405234801561001057600080fd5b5061137a806100206000396000f3fe608060405234801561001057600080fd5b50600436106100625760003560e01c80630dc96015146100675780630fbeee81146100855780632bc83fb1146100b557806378a1cd6d146100d15780637d6c999c146101015780639e5cba4d14610131575b600080fd5b61006f610161565b60405161007c91906108ed565b60405180910390f35b61009f600480360381019061009a9190610a97565b6102a8565b6040516100ac9190610b0e565b60405180910390f35b6100cf60048036038101906100ca9190610bde565b61032f565b005b6100eb60048036038101906100e69190610c56565b610553565b6040516100f89190610cb8565b60405180910390f35b61011b60048036038101906101169190610c56565b61060d565b6040516101289190610d82565b60405180910390f35b61014b60048036038101906101469190610dd0565b6106b9565b6040516101589190610e3b565b60405180910390f35b60606000805480602002602001604051908101604052809291908181526020016000905b8282101561029f57838290600052602060002090600202016040518060400160405290816000820180546101b890610e85565b80601f01602080910402602001604051908101604052809291908181526020018280546101e490610e85565b80156102315780601f1061020657610100808354040283529160200191610231565b820191906000526020600020905b81548152906001019060200180831161021457829003601f168201915b505050505081526020016001820160009054906101000a900473ffffffffffffffffffffffffffffffffffffffff1673ffffffffffffffffffffffffffffffffffffffff1673ffffffffffffffffffffffffffffffffffffffff168152505081526020019060010190610185565b50505050905090565b600080600090505b8351811015610323578273ffffffffffffffffffffffffffffffffffffffff168482815181106102e3576102e2610eb6565b5b602002602001015173ffffffffffffffffffffffffffffffffffffffff1603610310576001915050610329565b808061031b90610f14565b9150506102b0565b50600090505b92915050565b6103db6001826040516103429190610f98565b90815260200160405180910390208054806020026020016040519081016040528092919081815260200182805480156103d057602002820191906000526020600020905b8160009054906101000a900473ffffffffffffffffffffffffffffffffffffffff1673ffffffffffffffffffffffffffffffffffffffff1681526020019060010190808311610386575b5050505050336102a8565b1561041b576040517f08c379a00000000000000000000000000000000000000000000000000000000081526004016104129061100c565b60405180910390fd5b600060405180604001604052808481526020013373ffffffffffffffffffffffffffffffffffffffff168152509080600181540180825580915050600190039060005260206000209060020201600090919091909150600082015181600001908161048691906111d8565b5060208201518160010160006101000a81548173ffffffffffffffffffffffffffffffffffffffff021916908373ffffffffffffffffffffffffffffffffffffffff16021790555050506001816040516104e09190610f98565b9081526020016040518091039020339080600181540180825580915050600190039060005260206000200160009091909190916101000a81548173ffffffffffffffffffffffffffffffffffffffff021916908373ffffffffffffffffffffffffffffffffffffffff1602179055505050565b6000806000905060005b600080549050811015610603578360405160200161057b9190610f98565b60405160208183030381529060405280519060200120600082815481106105a5576105a4610eb6565b5b90600052602060002090600202016000016040516020016105c6919061132d565b60405160208183030381529060405280519060200120036105f05781806105ec90610f14565b9250505b80806105fb90610f14565b91505061055d565b5080915050919050565b606060018260405161061f9190610f98565b90815260200160405180910390208054806020026020016040519081016040528092919081815260200182805480156106ad57602002820191906000526020600020905b8160009054906101000a900473ffffffffffffffffffffffffffffffffffffffff1673ffffffffffffffffffffffffffffffffffffffff1681526020019060010190808311610663575b50505050509050919050565b60018280516020810182018051848252602083016020850120818352809550505050505081815481106106eb57600080fd5b906000526020600020016000915091509054906101000a900473ffffffffffffffffffffffffffffffffffffffff1681565b600081519050919050565b600082825260208201905092915050565b6000819050602082019050919050565b600081519050919050565b600082825260208201905092915050565b60005b83811015610783578082015181840152602081019050610768565b60008484015250505050565b6000601f19601f8301169050919050565b60006107ab82610749565b6107b58185610754565b93506107c5818560208601610765565b6107ce8161078f565b840191505092915050565b600073ffffffffffffffffffffffffffffffffffffffff82169050919050565b6000610804826107d9565b9050919050565b610814816107f9565b82525050565b6000604083016000830151848203600086015261083782826107a0565b915050602083015161084c602086018261080b565b508091505092915050565b6000610863838361081a565b905092915050565b6000602082019050919050565b60006108838261071d565b61088d8185610728565b93508360208202850161089f85610739565b8060005b858110156108db57848403895281516108bc8582610857565b94506108c78361086b565b925060208a019950506001810190506108a3565b50829750879550505050505092915050565b600060208201905081810360008301526109078184610878565b905092915050565b6000604051905090565b600080fd5b600080fd5b600080fd5b7f4e487b7100000000000000000000000000000000000000000000000000000000600052604160045260246000fd5b6109608261078f565b810181811067ffffffffffffffff8211171561097f5761097e610928565b5b80604052505050565b600061099261090f565b905061099e8282610957565b919050565b600067ffffffffffffffff8211156109be576109bd610928565b5b602082029050602081019050919050565b600080fd5b6109dd816107f9565b81146109e857600080fd5b50565b6000813590506109fa816109d4565b92915050565b6000610a13610a0e846109a3565b610988565b90508083825260208201905060208402830185811115610a3657610a356109cf565b5b835b81811015610a5f5780610a4b88826109eb565b845260208401935050602081019050610a38565b5050509392505050565b600082601f830112610a7e57610a7d610923565b5b8135610a8e848260208601610a00565b91505092915050565b60008060408385031215610aae57610aad610919565b5b600083013567ffffffffffffffff811115610acc57610acb61091e565b5b610ad885828601610a69565b9250506020610ae9858286016109eb565b9150509250929050565b60008115159050919050565b610b0881610af3565b82525050565b6000602082019050610b236000830184610aff565b92915050565b600080fd5b600067ffffffffffffffff821115610b4957610b48610928565b5b610b528261078f565b9050602081019050919050565b82818337600083830152505050565b6000610b81610b7c84610b2e565b610988565b905082815260208101848484011115610b9d57610b9c610b29565b5b610ba8848285610b5f565b509392505050565b600082601f830112610bc557610bc4610923565b5b8135610bd5848260208601610b6e565b91505092915050565b60008060408385031215610bf557610bf4610919565b5b600083013567ffffffffffffffff811115610c1357610c1261091e565b5b610c1f85828601610bb0565b925050602083013567ffffffffffffffff811115610c4057610c3f61091e565b5b610c4c85828601610bb0565b9150509250929050565b600060208284031215610c6c57610c6b610919565b5b600082013567ffffffffffffffff811115610c8a57610c8961091e565b5b610c9684828501610bb0565b91505092915050565b6000819050919050565b610cb281610c9f565b82525050565b6000602082019050610ccd6000830184610ca9565b92915050565b600081519050919050565b600082825260208201905092915050565b6000819050602082019050919050565b6000610d0b838361080b565b60208301905092915050565b6000602082019050919050565b6000610d2f82610cd3565b610d398185610cde565b9350610d4483610cef565b8060005b83811015610d75578151610d5c8882610cff565b9750610d6783610d17565b925050600181019050610d48565b5085935050505092915050565b60006020820190508181036000830152610d9c8184610d24565b905092915050565b610dad81610c9f565b8114610db857600080fd5b50565b600081359050610dca81610da4565b92915050565b60008060408385031215610de757610de6610919565b5b600083013567ffffffffffffffff811115610e0557610e0461091e565b5b610e1185828601610bb0565b9250506020610e2285828601610dbb565b9150509250929050565b610e35816107f9565b82525050565b6000602082019050610e506000830184610e2c565b92915050565b7f4e487b7100000000000000000000000000000000000000000000000000000000600052602260045260246000fd5b60006002820490506001821680610e9d57607f821691505b602082108103610eb057610eaf610e56565b5b50919050565b7f4e487b7100000000000000000000000000000000000000000000000000000000600052603260045260246000fd5b7f4e487b7100000000000000000000000000000000000000000000000000000000600052601160045260246000fd5b6000610f1f82610c9f565b91507fffffffffffffffffffffffffffffffffffffffffffffffffffffffffffffffff8203610f5157610f50610ee5565b5b600182019050919050565b600081905092915050565b6000610f7282610749565b610f7c8185610f5c565b9350610f8c818560208601610765565b80840191505092915050565b6000610fa48284610f67565b915081905092915050565b600082825260208201905092915050565b7f596f75206861766520616c726561647920766f74656400000000000000000000600082015250565b6000610ff6601683610faf565b915061100182610fc0565b602082019050919050565b6000602082019050818103600083015261102581610fe9565b9050919050565b60008190508160005260206000209050919050565b60006020601f8301049050919050565b600082821b905092915050565b60006008830261108e7fffffffffffffffffffffffffffffffffffffffffffffffffffffffffffffffff82611051565b6110988683611051565b95508019841693508086168417925050509392505050565b6000819050919050565b60006110d56110d06110cb84610c9f565b6110b0565b610c9f565b9050919050565b6000819050919050565b6110ef836110ba565b6111036110fb826110dc565b84845461105e565b825550505050565b600090565b61111861110b565b6111238184846110e6565b505050565b5b818110156111475761113c600082611110565b600181019050611129565b5050565b601f82111561118c5761115d8161102c565b61116684611041565b81016020851015611175578190505b61118961118185611041565b830182611128565b50505b505050565b600082821c905092915050565b60006111af60001984600802611191565b1980831691505092915050565b60006111c8838361119e565b9150826002028217905092915050565b6111e182610749565b67ffffffffffffffff8111156111fa576111f9610928565b5b6112048254610e85565b61120f82828561114b565b600060209050601f8311600181146112425760008415611230578287015190505b61123a85826111bc565b8655506112a2565b601f1984166112508661102c565b60005b8281101561127857848901518255600182019150602085019450602081019050611253565b868310156112955784890151611291601f89168261119e565b8355505b6001600288020188555050505b505050505050565b600081546112b781610e85565b6112c18186610f5c565b945060018216600081146112dc57600181146112f157611324565b60ff1983168652811515820286019350611324565b6112fa8561102c565b60005b8381101561131c578154818901526001820191506020810190506112fd565b838801955050505b50505092915050565b600061133982846112aa565b91508190509291505056fea26469706673582212201d4693d4b378054bc9f09e82596f3d637e4925530051a678f7494589568d61b964736f6c63430008120033","opcodes":"PUSH1 0x80 PUSH1 0x40 MSTORE CALLVALUE DUP1 ISZERO PUSH2 0x10 JUMPI PUSH1 0x0 DUP1 REVERT JUMPDEST POP PUSH2 0x137A DUP1 PUSH2 0x20 PUSH1 0x0 CODECOPY PUSH1 0x0 RETURN INVALID PUSH1 0x80 PUSH1 0x40 MSTORE CALLVALUE DUP1 ISZERO PUSH2 0x10 JUMPI PUSH1 0x0 DUP1 REVERT JUMPDEST POP PUSH1 0x4 CALLDATASIZE LT PUSH2 0x62 JUMPI PUSH1 0x0 CALLDATALOAD PUSH1 0xE0 SHR DUP1 PUSH4 0xDC96015 EQ PUSH2 0x67 JUMPI DUP1 PUSH4 0xFBEEE81 EQ PUSH2 0x85 JUMPI DUP1 PUSH4 0x2BC83FB1 EQ PUSH2 0xB5 JUMPI DUP1 PUSH4 0x78A1CD6D EQ PUSH2 0xD1 JUMPI DUP1 PUSH4 0x7D6C999C EQ PUSH2 0x101 JUMPI DUP1 PUSH4 0x9E5CBA4D EQ PUSH2 0x131 JUMPI JUMPDEST PUSH1 0x0 DUP1 REVERT JUMPDEST PUSH2 0x6F PUSH2 0x161 JUMP JUMPDEST PUSH1 0x40 MLOAD PUSH2 0x7C SWAP2 SWAP1 PUSH2 0x8ED JUMP JUMPDEST PUSH1 0x40 MLOAD DUP1 SWAP2 SUB SWAP1 RETURN JUMPDEST PUSH2 0x9F PUSH1 0x4 DUP1 CALLDATASIZE SUB DUP2 ADD SWAP1 PUSH2 0x9A SWAP2 SWAP1 PUSH2 0xA97 JUMP JUMPDEST PUSH2 0x2A8 JUMP JUMPDEST PUSH1 0x40 MLOAD PUSH2 0xAC SWAP2 SWAP1 PUSH2 0xB0E JUMP JUMPDEST PUSH1 0x40 MLOAD DUP1 SWAP2 SUB SWAP1 RETURN JUMPDEST PUSH2 0xCF PUSH1 0x4 DUP1 CALLDATASIZE SUB DUP2 ADD SWAP1 PUSH2 0xCA SWAP2 SWAP1 PUSH2 0xBDE JUMP JUMPDEST PUSH2 0x32F JUMP JUMPDEST STOP JUMPDEST PUSH2 0xEB PUSH1 0x4 DUP1 CALLDATASIZE SUB DUP2 ADD SWAP1 PUSH2 0xE6 SWAP2 SWAP1 PUSH2 0xC56 JUMP JUMPDEST PUSH2 0x553 JUMP JUMPDEST PUSH1 0x40 MLOAD PUSH2 0xF8 SWAP2 SWAP1 PUSH2 0xCB8 JUMP JUMPDEST PUSH1 0x40 MLOAD DUP1 SWAP2 SUB SWAP1 RETURN JUMPDEST PUSH2 0x11B PUSH1 0x4 DUP1 CALLDATASIZE SUB DUP2 ADD SWAP1 PUSH2 0x116 SWAP2 SWAP1 PUSH2 0xC56 JUMP JUMPDEST PUSH2 0x60D JUMP JUMPDEST PUSH1 0x40 MLOAD PUSH2 0x128 SWAP2 SWAP1 PUSH2 0xD82 JUMP JUMPDEST PUSH1 0x40 MLOAD DUP1 SWAP2 SUB SWAP1 RETURN JUMPDEST PUSH2 0x14B PUSH1 0x4 DUP1 CALLDATASIZE SUB DUP2 ADD SWAP1 PUSH2 0x146 SWAP2 SWAP1 PUSH2 0xDD0 JUMP JUMPDEST PUSH2 0x6B9 JUMP JUMPDEST PUSH1 0x40 MLOAD PUSH2 0x158 SWAP2 SWAP1 PUSH2 0xE3B JUMP JUMPDEST PUSH1 0x40 MLOAD DUP1 SWAP2 SUB SWAP1 RETURN JUMPDEST PUSH1 0x60 PUSH1 0x0 DUP1 SLOAD DUP1 PUSH1 0x20 MUL PUSH1 0x20 ADD PUSH1 0x40 MLOAD SWAP1 DUP2 ADD PUSH1 0x40 MSTORE DUP1 SWAP3 SWAP2 SWAP1 DUP2 DUP2 MSTORE PUSH1 0x20 ADD PUSH1 0x0 SWAP1 JUMPDEST DUP3 DUP3 LT ISZERO PUSH2 0x29F JUMPI DUP4 DUP3 SWAP1 PUSH1 0x0 MSTORE PUSH1 0x20 PUSH1 0x0 KECCAK256 SWAP1 PUSH1 0x2 MUL ADD PUSH1 0x40 MLOAD DUP1 PUSH1 0x40 ADD PUSH1 0x40 MSTORE SWAP1 DUP2 PUSH1 0x0 DUP3 ADD DUP1 SLOAD PUSH2 0x1B8 SWAP1 PUSH2 0xE85 JUMP JUMPDEST DUP1 PUSH1 0x1F ADD PUSH1 0x20 DUP1 SWAP2 DIV MUL PUSH1 0x20 ADD PUSH1 0x40 MLOAD SWAP1 DUP2 ADD PUSH1 0x40 MSTORE DUP1 SWAP3 SWAP2 SWAP1 DUP2 DUP2 MSTORE PUSH1 0x20 ADD DUP3 DUP1 SLOAD PUSH2 0x1E4 SWAP1 PUSH2 0xE85 JUMP JUMPDEST DUP1 ISZERO PUSH2 0x231 JUMPI DUP1 PUSH1 0x1F LT PUSH2 0x206 JUMPI PUSH2 0x100 DUP1 DUP4 SLOAD DIV MUL DUP4 MSTORE SWAP2 PUSH1 0x20 ADD SWAP2 PUSH2 0x231 JUMP JUMPDEST DUP3 ADD SWAP2 SWAP1 PUSH1 0x0 MSTORE PUSH1 0x20 PUSH1 0x0 KECCAK256 SWAP1 JUMPDEST DUP2 SLOAD DUP2 MSTORE SWAP1 PUSH1 0x1 ADD SWAP1 PUSH1 0x20 ADD DUP1 DUP4 GT PUSH2 0x214 JUMPI DUP3 SWAP1 SUB PUSH1 0x1F AND DUP3 ADD SWAP2 JUMPDEST POP POP POP POP POP DUP2 MSTORE PUSH1 0x20 ADD PUSH1 0x1 DUP3 ADD PUSH1 0x0 SWAP1 SLOAD SWAP1 PUSH2 0x100 EXP SWAP1 DIV PUSH20 0xFFFFFFFFFFFFFFFFFFFFFFFFFFFFFFFFFFFFFFFF AND PUSH20 0xFFFFFFFFFFFFFFFFFFFFFFFFFFFFFFFFFFFFFFFF AND PUSH20 0xFFFFFFFFFFFFFFFFFFFFFFFFFFFFFFFFFFFFFFFF AND DUP2 MSTORE POP POP DUP2 MSTORE PUSH1 0x20 ADD SWAP1 PUSH1 0x1 ADD SWAP1 PUSH2 0x185 JUMP JUMPDEST POP POP POP POP SWAP1 POP SWAP1 JUMP JUMPDEST PUSH1 0x0 DUP1 PUSH1 0x0 SWAP1 POP JUMPDEST DUP4 MLOAD DUP2 LT ISZERO PUSH2 0x323 JUMPI DUP3 PUSH20 0xFFFFFFFFFFFFFFFFFFFFFFFFFFFFFFFFFFFFFFFF AND DUP5 DUP3 DUP2 MLOAD DUP2 LT PUSH2 0x2E3 JUMPI PUSH2 0x2E2 PUSH2 0xEB6 JUMP JUMPDEST JUMPDEST PUSH1 0x20 MUL PUSH1 0x20 ADD ADD MLOAD PUSH20 0xFFFFFFFFFFFFFFFFFFFFFFFFFFFFFFFFFFFFFFFF AND SUB PUSH2 0x310 JUMPI PUSH1 0x1 SWAP2 POP POP PUSH2 0x329 JUMP JUMPDEST DUP1 DUP1 PUSH2 0x31B SWAP1 PUSH2 0xF14 JUMP JUMPDEST SWAP2 POP POP PUSH2 0x2B0 JUMP JUMPDEST POP PUSH1 0x0 SWAP1 POP JUMPDEST SWAP3 SWAP2 POP POP JUMP JUMPDEST PUSH2 0x3DB PUSH1 0x1 DUP3 PUSH1 0x40 MLOAD PUSH2 0x342 SWAP2 SWAP1 PUSH2 0xF98 JUMP JUMPDEST SWAP1 DUP2 MSTORE PUSH1 0x20 ADD PUSH1 0x40 MLOAD DUP1 SWAP2 SUB SWAP1 KECCAK256 DUP1 SLOAD DUP1 PUSH1 0x20 MUL PUSH1 0x20 ADD PUSH1 0x40 MLOAD SWAP1 DUP2 ADD PUSH1 0x40 MSTORE DUP1 SWAP3 SWAP2 SWAP1 DUP2 DUP2 MSTORE PUSH1 0x20 ADD DUP3 DUP1 SLOAD DUP1 ISZERO PUSH2 0x3D0 JUMPI PUSH1 0x20 MUL DUP3 ADD SWAP2 SWAP1 PUSH1 0x0 MSTORE PUSH1 0x20 PUSH1 0x0 KECCAK256 SWAP1 JUMPDEST DUP2 PUSH1 0x0 SWAP1 SLOAD SWAP1 PUSH2 0x100 EXP SWAP1 DIV PUSH20 0xFFFFFFFFFFFFFFFFFFFFFFFFFFFFFFFFFFFFFFFF AND PUSH20 0xFFFFFFFFFFFFFFFFFFFFFFFFFFFFFFFFFFFFFFFF AND DUP2 MSTORE PUSH1 0x20 ADD SWAP1 PUSH1 0x1 ADD SWAP1 DUP1 DUP4 GT PUSH2 0x386 JUMPI JUMPDEST POP POP POP POP POP CALLER PUSH2 0x2A8 JUMP JUMPDEST ISZERO PUSH2 0x41B JUMPI PUSH1 0x40 MLOAD PUSH32 0x8C379A000000000000000000000000000000000000000000000000000000000 DUP2 MSTORE PUSH1 0x4 ADD PUSH2 0x412 SWAP1 PUSH2 0x100C JUMP JUMPDEST PUSH1 0x40 MLOAD DUP1 SWAP2 SUB SWAP1 REVERT JUMPDEST PUSH1 0x0 PUSH1 0x40 MLOAD DUP1 PUSH1 0x40 ADD PUSH1 0x40 MSTORE DUP1 DUP5 DUP2 MSTORE PUSH1 0x20 ADD CALLER PUSH20 0xFFFFFFFFFFFFFFFFFFFFFFFFFFFFFFFFFFFFFFFF AND DUP2 MSTORE POP SWAP1 DUP1 PUSH1 0x1 DUP2 SLOAD ADD DUP1 DUP3 SSTORE DUP1 SWAP2 POP POP PUSH1 0x1 SWAP1 SUB SWAP1 PUSH1 0x0 MSTORE PUSH1 0x20 PUSH1 0x0 KECCAK256 SWAP1 PUSH1 0x2 MUL ADD PUSH1 0x0 SWAP1 SWAP2 SWAP1 SWAP2 SWAP1 SWAP2 POP PUSH1 0x0 DUP3 ADD MLOAD DUP2 PUSH1 0x0 ADD SWAP1 DUP2 PUSH2 0x486 SWAP2 SWAP1 PUSH2 0x11D8 JUMP JUMPDEST POP PUSH1 0x20 DUP3 ADD MLOAD DUP2 PUSH1 0x1 ADD PUSH1 0x0 PUSH2 0x100 EXP DUP2 SLOAD DUP2 PUSH20 0xFFFFFFFFFFFFFFFFFFFFFFFFFFFFFFFFFFFFFFFF MUL NOT AND SWAP1 DUP4 PUSH20 0xFFFFFFFFFFFFFFFFFFFFFFFFFFFFFFFFFFFFFFFF AND MUL OR SWAP1 SSTORE POP POP POP PUSH1 0x1 DUP2 PUSH1 0x40 MLOAD PUSH2 0x4E0 SWAP2 SWAP1 PUSH2 0xF98 JUMP JUMPDEST SWAP1 DUP2 MSTORE PUSH1 0x20 ADD PUSH1 0x40 MLOAD DUP1 SWAP2 SUB SWAP1 KECCAK256 CALLER SWAP1 DUP1 PUSH1 0x1 DUP2 SLOAD ADD DUP1 DUP3 SSTORE DUP1 SWAP2 POP POP PUSH1 0x1 SWAP1 SUB SWAP1 PUSH1 0x0 MSTORE PUSH1 0x20 PUSH1 0x0 KECCAK256 ADD PUSH1 0x0 SWAP1 SWAP2 SWAP1 SWAP2 SWAP1 SWAP2 PUSH2 0x100 EXP DUP2 SLOAD DUP2 PUSH20 0xFFFFFFFFFFFFFFFFFFFFFFFFFFFFFFFFFFFFFFFF MUL NOT AND SWAP1 DUP4 PUSH20 0xFFFFFFFFFFFFFFFFFFFFFFFFFFFFFFFFFFFFFFFF AND MUL OR SWAP1 SSTORE POP POP POP JUMP JUMPDEST PUSH1 0x0 DUP1 PUSH1 0x0 SWAP1 POP PUSH1 0x0 JUMPDEST PUSH1 0x0 DUP1 SLOAD SWAP1 POP DUP2 LT ISZERO PUSH2 0x603 JUMPI DUP4 PUSH1 0x40 MLOAD PUSH1 0x20 ADD PUSH2 0x57B SWAP2 SWAP1 PUSH2 0xF98 JUMP JUMPDEST PUSH1 0x40 MLOAD PUSH1 0x20 DUP2 DUP4 SUB SUB DUP2 MSTORE SWAP1 PUSH1 0x40 MSTORE DUP1 MLOAD SWAP1 PUSH1 0x20 ADD KECCAK256 PUSH1 0x0 DUP3 DUP2 SLOAD DUP2 LT PUSH2 0x5A5 JUMPI PUSH2 0x5A4 PUSH2 0xEB6 JUMP JUMPDEST JUMPDEST SWAP1 PUSH1 0x0 MSTORE PUSH1 0x20 PUSH1 0x0 KECCAK256 SWAP1 PUSH1 0x2 MUL ADD PUSH1 0x0 ADD PUSH1 0x40 MLOAD PUSH1 0x20 ADD PUSH2 0x5C6 SWAP2 SWAP1 PUSH2 0x132D JUMP JUMPDEST PUSH1 0x40 MLOAD PUSH1 0x20 DUP2 DUP4 SUB SUB DUP2 MSTORE SWAP1 PUSH1 0x40 MSTORE DUP1 MLOAD SWAP1 PUSH1 0x20 ADD KECCAK256 SUB PUSH2 0x5F0 JUMPI DUP2 DUP1 PUSH2 0x5EC SWAP1 PUSH2 0xF14 JUMP JUMPDEST SWAP3 POP POP JUMPDEST DUP1 DUP1 PUSH2 0x5FB SWAP1 PUSH2 0xF14 JUMP JUMPDEST SWAP2 POP POP PUSH2 0x55D JUMP JUMPDEST POP DUP1 SWAP2 POP POP SWAP2 SWAP1 POP JUMP JUMPDEST PUSH1 0x60 PUSH1 0x1 DUP3 PUSH1 0x40 MLOAD PUSH2 0x61F SWAP2 SWAP1 PUSH2 0xF98 JUMP JUMPDEST SWAP1 DUP2 MSTORE PUSH1 0x20 ADD PUSH1 0x40 MLOAD DUP1 SWAP2 SUB SWAP1 KECCAK256 DUP1 SLOAD DUP1 PUSH1 0x20 MUL PUSH1 0x20 ADD PUSH1 0x40 MLOAD SWAP1 DUP2 ADD PUSH1 0x40 MSTORE DUP1 SWAP3 SWAP2 SWAP1 DUP2 DUP2 MSTORE PUSH1 0x20 ADD DUP3 DUP1 SLOAD DUP1 ISZERO PUSH2 0x6AD JUMPI PUSH1 0x20 MUL DUP3 ADD SWAP2 SWAP1 PUSH1 0x0 MSTORE PUSH1 0x20 PUSH1 0x0 KECCAK256 SWAP1 JUMPDEST DUP2 PUSH1 0x0 SWAP1 SLOAD SWAP1 PUSH2 0x100 EXP SWAP1 DIV PUSH20 0xFFFFFFFFFFFFFFFFFFFFFFFFFFFFFFFFFFFFFFFF AND PUSH20 0xFFFFFFFFFFFFFFFFFFFFFFFFFFFFFFFFFFFFFFFF AND DUP2 MSTORE PUSH1 0x20 ADD SWAP1 PUSH1 0x1 ADD SWAP1 DUP1 DUP4 GT PUSH2 0x663 JUMPI JUMPDEST POP POP POP POP POP SWAP1 POP SWAP2 SWAP1 POP JUMP JUMPDEST PUSH1 0x1 DUP3 DUP1 MLOAD PUSH1 0x20 DUP2 ADD DUP3 ADD DUP1 MLOAD DUP5 DUP3 MSTORE PUSH1 0x20 DUP4 ADD PUSH1 0x20 DUP6 ADD KECCAK256 DUP2 DUP4 MSTORE DUP1 SWAP6 POP POP POP POP POP POP DUP2 DUP2 SLOAD DUP2 LT PUSH2 0x6EB JUMPI PUSH1 0x0 DUP1 REVERT JUMPDEST SWAP1 PUSH1 0x0 MSTORE PUSH1 0x20 PUSH1 0x0 KECCAK256 ADD PUSH1 0x0 SWAP2 POP SWAP2 POP SWAP1 SLOAD SWAP1 PUSH2 0x100 EXP SWAP1 DIV PUSH20 0xFFFFFFFFFFFFFFFFFFFFFFFFFFFFFFFFFFFFFFFF AND DUP2 JUMP JUMPDEST PUSH1 0x0 DUP2 MLOAD SWAP1 POP SWAP2 SWAP1 POP JUMP JUMPDEST PUSH1 0x0 DUP3 DUP3 MSTORE PUSH1 0x20 DUP3 ADD SWAP1 POP SWAP3 SWAP2 POP POP JUMP JUMPDEST PUSH1 0x0 DUP2 SWAP1 POP PUSH1 0x20 DUP3 ADD SWAP1 POP SWAP2 SWAP1 POP JUMP JUMPDEST PUSH1 0x0 DUP2 MLOAD SWAP1 POP SWAP2 SWAP1 POP JUMP JUMPDEST PUSH1 0x0 DUP3 DUP3 MSTORE PUSH1 0x20 DUP3 ADD SWAP1 POP SWAP3 SWAP2 POP POP JUMP JUMPDEST PUSH1 0x0 JUMPDEST DUP4 DUP2 LT ISZERO PUSH2 0x783 JUMPI DUP1 DUP3 ADD MLOAD DUP2 DUP5 ADD MSTORE PUSH1 0x20 DUP2 ADD SWAP1 POP PUSH2 0x768 JUMP JUMPDEST PUSH1 0x0 DUP5 DUP5 ADD MSTORE POP POP POP POP JUMP JUMPDEST PUSH1 0x0 PUSH1 0x1F NOT PUSH1 0x1F DUP4 ADD AND SWAP1 POP SWAP2 SWAP1 POP JUMP JUMPDEST PUSH1 0x0 PUSH2 0x7AB DUP3 PUSH2 0x749 JUMP JUMPDEST PUSH2 0x7B5 DUP2 DUP6 PUSH2 0x754 JUMP JUMPDEST SWAP4 POP PUSH2 0x7C5 DUP2 DUP6 PUSH1 0x20 DUP7 ADD PUSH2 0x765 JUMP JUMPDEST PUSH2 0x7CE DUP2 PUSH2 0x78F JUMP JUMPDEST DUP5 ADD SWAP2 POP POP SWAP3 SWAP2 POP POP JUMP JUMPDEST PUSH1 0x0 PUSH20 0xFFFFFFFFFFFFFFFFFFFFFFFFFFFFFFFFFFFFFFFF DUP3 AND SWAP1 POP SWAP2 SWAP1 POP JUMP JUMPDEST PUSH1 0x0 PUSH2 0x804 DUP3 PUSH2 0x7D9 JUMP JUMPDEST SWAP1 POP SWAP2 SWAP1 POP JUMP JUMPDEST PUSH2 0x814 DUP2 PUSH2 0x7F9 JUMP JUMPDEST DUP3 MSTORE POP POP JUMP JUMPDEST PUSH1 0x0 PUSH1 0x40 DUP4 ADD PUSH1 0x0 DUP4 ADD MLOAD DUP5 DUP3 SUB PUSH1 0x0 DUP7 ADD MSTORE PUSH2 0x837 DUP3 DUP3 PUSH2 0x7A0 JUMP JUMPDEST SWAP2 POP POP PUSH1 0x20 DUP4 ADD MLOAD PUSH2 0x84C PUSH1 0x20 DUP7 ADD DUP3 PUSH2 0x80B JUMP JUMPDEST POP DUP1 SWAP2 POP POP SWAP3 SWAP2 POP POP JUMP JUMPDEST PUSH1 0x0 PUSH2 0x863 DUP4 DUP4 PUSH2 0x81A JUMP JUMPDEST SWAP1 POP SWAP3 SWAP2 POP POP JUMP JUMPDEST PUSH1 0x0 PUSH1 0x20 DUP3 ADD SWAP1 POP SWAP2 SWAP1 POP JUMP JUMPDEST PUSH1 0x0 PUSH2 0x883 DUP3 PUSH2 0x71D JUMP JUMPDEST PUSH2 0x88D DUP2 DUP6 PUSH2 0x728 JUMP JUMPDEST SWAP4 POP DUP4 PUSH1 0x20 DUP3 MUL DUP6 ADD PUSH2 0x89F DUP6 PUSH2 0x739 JUMP JUMPDEST DUP1 PUSH1 0x0 JUMPDEST DUP6 DUP2 LT ISZERO PUSH2 0x8DB JUMPI DUP5 DUP5 SUB DUP10 MSTORE DUP2 MLOAD PUSH2 0x8BC DUP6 DUP3 PUSH2 0x857 JUMP JUMPDEST SWAP5 POP PUSH2 0x8C7 DUP4 PUSH2 0x86B JUMP JUMPDEST SWAP3 POP PUSH1 0x20 DUP11 ADD SWAP10 POP POP PUSH1 0x1 DUP2 ADD SWAP1 POP PUSH2 0x8A3 JUMP JUMPDEST POP DUP3 SWAP8 POP DUP8 SWAP6 POP POP POP POP POP POP SWAP3 SWAP2 POP POP JUMP JUMPDEST PUSH1 0x0 PUSH1 0x20 DUP3 ADD SWAP1 POP DUP2 DUP2 SUB PUSH1 0x0 DUP4 ADD MSTORE PUSH2 0x907 DUP2 DUP5 PUSH2 0x878 JUMP JUMPDEST SWAP1 POP SWAP3 SWAP2 POP POP JUMP JUMPDEST PUSH1 0x0 PUSH1 0x40 MLOAD SWAP1 POP SWAP1 JUMP JUMPDEST PUSH1 0x0 DUP1 REVERT JUMPDEST PUSH1 0x0 DUP1 REVERT JUMPDEST PUSH1 0x0 DUP1 REVERT JUMPDEST PUSH32 0x4E487B7100000000000000000000000000000000000000000000000000000000 PUSH1 0x0 MSTORE PUSH1 0x41 PUSH1 0x4 MSTORE PUSH1 0x24 PUSH1 0x0 REVERT JUMPDEST PUSH2 0x960 DUP3 PUSH2 0x78F JUMP JUMPDEST DUP2 ADD DUP2 DUP2 LT PUSH8 0xFFFFFFFFFFFFFFFF DUP3 GT OR ISZERO PUSH2 0x97F JUMPI PUSH2 0x97E PUSH2 0x928 JUMP JUMPDEST JUMPDEST DUP1 PUSH1 0x40 MSTORE POP POP POP JUMP JUMPDEST PUSH1 0x0 PUSH2 0x992 PUSH2 0x90F JUMP JUMPDEST SWAP1 POP PUSH2 0x99E DUP3 DUP3 PUSH2 0x957 JUMP JUMPDEST SWAP2 SWAP1 POP JUMP JUMPDEST PUSH1 0x0 PUSH8 0xFFFFFFFFFFFFFFFF DUP3 GT ISZERO PUSH2 0x9BE JUMPI PUSH2 0x9BD PUSH2 0x928 JUMP JUMPDEST JUMPDEST PUSH1 0x20 DUP3 MUL SWAP1 POP PUSH1 0x20 DUP2 ADD SWAP1 POP SWAP2 SWAP1 POP JUMP JUMPDEST PUSH1 0x0 DUP1 REVERT JUMPDEST PUSH2 0x9DD DUP2 PUSH2 0x7F9 JUMP JUMPDEST DUP2 EQ PUSH2 0x9E8 JUMPI PUSH1 0x0 DUP1 REVERT JUMPDEST POP JUMP JUMPDEST PUSH1 0x0 DUP2 CALLDATALOAD SWAP1 POP PUSH2 0x9FA DUP2 PUSH2 0x9D4 JUMP JUMPDEST SWAP3 SWAP2 POP POP JUMP JUMPDEST PUSH1 0x0 PUSH2 0xA13 PUSH2 0xA0E DUP5 PUSH2 0x9A3 JUMP JUMPDEST PUSH2 0x988 JUMP JUMPDEST SWAP1 POP DUP1 DUP4 DUP3 MSTORE PUSH1 0x20 DUP3 ADD SWAP1 POP PUSH1 0x20 DUP5 MUL DUP4 ADD DUP6 DUP2 GT ISZERO PUSH2 0xA36 JUMPI PUSH2 0xA35 PUSH2 0x9CF JUMP JUMPDEST JUMPDEST DUP4 JUMPDEST DUP2 DUP2 LT ISZERO PUSH2 0xA5F JUMPI DUP1 PUSH2 0xA4B DUP9 DUP3 PUSH2 0x9EB JUMP JUMPDEST DUP5 MSTORE PUSH1 0x20 DUP5 ADD SWAP4 POP POP PUSH1 0x20 DUP2 ADD SWAP1 POP PUSH2 0xA38 JUMP JUMPDEST POP POP POP SWAP4 SWAP3 POP POP POP JUMP JUMPDEST PUSH1 0x0 DUP3 PUSH1 0x1F DUP4 ADD SLT PUSH2 0xA7E JUMPI PUSH2 0xA7D PUSH2 0x923 JUMP JUMPDEST JUMPDEST DUP2 CALLDATALOAD PUSH2 0xA8E DUP5 DUP3 PUSH1 0x20 DUP7 ADD PUSH2 0xA00 JUMP JUMPDEST SWAP2 POP POP SWAP3 SWAP2 POP POP JUMP JUMPDEST PUSH1 0x0 DUP1 PUSH1 0x40 DUP4 DUP6 SUB SLT ISZERO PUSH2 0xAAE JUMPI PUSH2 0xAAD PUSH2 0x919 JUMP JUMPDEST JUMPDEST PUSH1 0x0 DUP4 ADD CALLDATALOAD PUSH8 0xFFFFFFFFFFFFFFFF DUP2 GT ISZERO PUSH2 0xACC JUMPI PUSH2 0xACB PUSH2 0x91E JUMP JUMPDEST JUMPDEST PUSH2 0xAD8 DUP6 DUP3 DUP7 ADD PUSH2 0xA69 JUMP JUMPDEST SWAP3 POP POP PUSH1 0x20 PUSH2 0xAE9 DUP6 DUP3 DUP7 ADD PUSH2 0x9EB JUMP JUMPDEST SWAP2 POP POP SWAP3 POP SWAP3 SWAP1 POP JUMP JUMPDEST PUSH1 0x0 DUP2 ISZERO ISZERO SWAP1 POP SWAP2 SWAP1 POP JUMP JUMPDEST PUSH2 0xB08 DUP2 PUSH2 0xAF3 JUMP JUMPDEST DUP3 MSTORE POP POP JUMP JUMPDEST PUSH1 0x0 PUSH1 0x20 DUP3 ADD SWAP1 POP PUSH2 0xB23 PUSH1 0x0 DUP4 ADD DUP5 PUSH2 0xAFF JUMP JUMPDEST SWAP3 SWAP2 POP POP JUMP JUMPDEST PUSH1 0x0 DUP1 REVERT JUMPDEST PUSH1 0x0 PUSH8 0xFFFFFFFFFFFFFFFF DUP3 GT ISZERO PUSH2 0xB49 JUMPI PUSH2 0xB48 PUSH2 0x928 JUMP JUMPDEST JUMPDEST PUSH2 0xB52 DUP3 PUSH2 0x78F JUMP JUMPDEST SWAP1 POP PUSH1 0x20 DUP2 ADD SWAP1 POP SWAP2 SWAP1 POP JUMP JUMPDEST DUP3 DUP2 DUP4 CALLDATACOPY PUSH1 0x0 DUP4 DUP4 ADD MSTORE POP POP POP JUMP JUMPDEST PUSH1 0x0 PUSH2 0xB81 PUSH2 0xB7C DUP5 PUSH2 0xB2E JUMP JUMPDEST PUSH2 0x988 JUMP JUMPDEST SWAP1 POP DUP3 DUP2 MSTORE PUSH1 0x20 DUP2 ADD DUP5 DUP5 DUP5 ADD GT ISZERO PUSH2 0xB9D JUMPI PUSH2 0xB9C PUSH2 0xB29 JUMP JUMPDEST JUMPDEST PUSH2 0xBA8 DUP5 DUP3 DUP6 PUSH2 0xB5F JUMP JUMPDEST POP SWAP4 SWAP3 POP POP POP JUMP JUMPDEST PUSH1 0x0 DUP3 PUSH1 0x1F DUP4 ADD SLT PUSH2 0xBC5 JUMPI PUSH2 0xBC4 PUSH2 0x923 JUMP JUMPDEST JUMPDEST DUP2 CALLDATALOAD PUSH2 0xBD5 DUP5 DUP3 PUSH1 0x20 DUP7 ADD PUSH2 0xB6E JUMP JUMPDEST SWAP2 POP POP SWAP3 SWAP2 POP POP JUMP JUMPDEST PUSH1 0x0 DUP1 PUSH1 0x40 DUP4 DUP6 SUB SLT ISZERO PUSH2 0xBF5 JUMPI PUSH2 0xBF4 PUSH2 0x919 JUMP JUMPDEST JUMPDEST PUSH1 0x0 DUP4 ADD CALLDATALOAD PUSH8 0xFFFFFFFFFFFFFFFF DUP2 GT ISZERO PUSH2 0xC13 JUMPI PUSH2 0xC12 PUSH2 0x91E JUMP JUMPDEST JUMPDEST PUSH2 0xC1F DUP6 DUP3 DUP7 ADD PUSH2 0xBB0 JUMP JUMPDEST SWAP3 POP POP PUSH1 0x20 DUP4 ADD CALLDATALOAD PUSH8 0xFFFFFFFFFFFFFFFF DUP2 GT ISZERO PUSH2 0xC40 JUMPI PUSH2 0xC3F PUSH2 0x91E JUMP JUMPDEST JUMPDEST PUSH2 0xC4C DUP6 DUP3 DUP7 ADD PUSH2 0xBB0 JUMP JUMPDEST SWAP2 POP POP SWAP3 POP SWAP3 SWAP1 POP JUMP JUMPDEST PUSH1 0x0 PUSH1 0x20 DUP3 DUP5 SUB SLT ISZERO PUSH2 0xC6C JUMPI PUSH2 0xC6B PUSH2 0x919 JUMP JUMPDEST JUMPDEST PUSH1 0x0 DUP3 ADD CALLDATALOAD PUSH8 0xFFFFFFFFFFFFFFFF DUP2 GT ISZERO PUSH2 0xC8A JUMPI PUSH2 0xC89 PUSH2 0x91E JUMP JUMPDEST JUMPDEST PUSH2 0xC96 DUP5 DUP3 DUP6 ADD PUSH2 0xBB0 JUMP JUMPDEST SWAP2 POP POP SWAP3 SWAP2 POP POP JUMP JUMPDEST PUSH1 0x0 DUP2 SWAP1 POP SWAP2 SWAP1 POP JUMP JUMPDEST PUSH2 0xCB2 DUP2 PUSH2 0xC9F JUMP JUMPDEST DUP3 MSTORE POP POP JUMP JUMPDEST PUSH1 0x0 PUSH1 0x20 DUP3 ADD SWAP1 POP PUSH2 0xCCD PUSH1 0x0 DUP4 ADD DUP5 PUSH2 0xCA9 JUMP JUMPDEST SWAP3 SWAP2 POP POP JUMP JUMPDEST PUSH1 0x0 DUP2 MLOAD SWAP1 POP SWAP2 SWAP1 POP JUMP JUMPDEST PUSH1 0x0 DUP3 DUP3 MSTORE PUSH1 0x20 DUP3 ADD SWAP1 POP SWAP3 SWAP2 POP POP JUMP JUMPDEST PUSH1 0x0 DUP2 SWAP1 POP PUSH1 0x20 DUP3 ADD SWAP1 POP SWAP2 SWAP1 POP JUMP JUMPDEST PUSH1 0x0 PUSH2 0xD0B DUP4 DUP4 PUSH2 0x80B JUMP JUMPDEST PUSH1 0x20 DUP4 ADD SWAP1 POP SWAP3 SWAP2 POP POP JUMP JUMPDEST PUSH1 0x0 PUSH1 0x20 DUP3 ADD SWAP1 POP SWAP2 SWAP1 POP JUMP JUMPDEST PUSH1 0x0 PUSH2 0xD2F DUP3 PUSH2 0xCD3 JUMP JUMPDEST PUSH2 0xD39 DUP2 DUP6 PUSH2 0xCDE JUMP JUMPDEST SWAP4 POP PUSH2 0xD44 DUP4 PUSH2 0xCEF JUMP JUMPDEST DUP1 PUSH1 0x0 JUMPDEST DUP4 DUP2 LT ISZERO PUSH2 0xD75 JUMPI DUP2 MLOAD PUSH2 0xD5C DUP9 DUP3 PUSH2 0xCFF JUMP JUMPDEST SWAP8 POP PUSH2 0xD67 DUP4 PUSH2 0xD17 JUMP JUMPDEST SWAP3 POP POP PUSH1 0x1 DUP2 ADD SWAP1 POP PUSH2 0xD48 JUMP JUMPDEST POP DUP6 SWAP4 POP POP POP POP SWAP3 SWAP2 POP POP JUMP JUMPDEST PUSH1 0x0 PUSH1 0x20 DUP3 ADD SWAP1 POP DUP2 DUP2 SUB PUSH1 0x0 DUP4 ADD MSTORE PUSH2 0xD9C DUP2 DUP5 PUSH2 0xD24 JUMP JUMPDEST SWAP1 POP SWAP3 SWAP2 POP POP JUMP JUMPDEST PUSH2 0xDAD DUP2 PUSH2 0xC9F JUMP JUMPDEST DUP2 EQ PUSH2 0xDB8 JUMPI PUSH1 0x0 DUP1 REVERT JUMPDEST POP JUMP JUMPDEST PUSH1 0x0 DUP2 CALLDATALOAD SWAP1 POP PUSH2 0xDCA DUP2 PUSH2 0xDA4 JUMP JUMPDEST SWAP3 SWAP2 POP POP JUMP JUMPDEST PUSH1 0x0 DUP1 PUSH1 0x40 DUP4 DUP6 SUB SLT ISZERO PUSH2 0xDE7 JUMPI PUSH2 0xDE6 PUSH2 0x919 JUMP JUMPDEST JUMPDEST PUSH1 0x0 DUP4 ADD CALLDATALOAD PUSH8 0xFFFFFFFFFFFFFFFF DUP2 GT ISZERO PUSH2 0xE05 JUMPI PUSH2 0xE04 PUSH2 0x91E JUMP JUMPDEST JUMPDEST PUSH2 0xE11 DUP6 DUP3 DUP7 ADD PUSH2 0xBB0 JUMP JUMPDEST SWAP3 POP POP PUSH1 0x20 PUSH2 0xE22 DUP6 DUP3 DUP7 ADD PUSH2 0xDBB JUMP JUMPDEST SWAP2 POP POP SWAP3 POP SWAP3 SWAP1 POP JUMP JUMPDEST PUSH2 0xE35 DUP2 PUSH2 0x7F9 JUMP JUMPDEST DUP3 MSTORE POP POP JUMP JUMPDEST PUSH1 0x0 PUSH1 0x20 DUP3 ADD SWAP1 POP PUSH2 0xE50 PUSH1 0x0 DUP4 ADD DUP5 PUSH2 0xE2C JUMP JUMPDEST SWAP3 SWAP2 POP POP JUMP JUMPDEST PUSH32 0x4E487B7100000000000000000000000000000000000000000000000000000000 PUSH1 0x0 MSTORE PUSH1 0x22 PUSH1 0x4 MSTORE PUSH1 0x24 PUSH1 0x0 REVERT JUMPDEST PUSH1 0x0 PUSH1 0x2 DUP3 DIV SWAP1 POP PUSH1 0x1 DUP3 AND DUP1 PUSH2 0xE9D JUMPI PUSH1 0x7F DUP3 AND SWAP2 POP JUMPDEST PUSH1 0x20 DUP3 LT DUP2 SUB PUSH2 0xEB0 JUMPI PUSH2 0xEAF PUSH2 0xE56 JUMP JUMPDEST JUMPDEST POP SWAP2 SWAP1 POP JUMP JUMPDEST PUSH32 0x4E487B7100000000000000000000000000000000000000000000000000000000 PUSH1 0x0 MSTORE PUSH1 0x32 PUSH1 0x4 MSTORE PUSH1 0x24 PUSH1 0x0 REVERT JUMPDEST PUSH32 0x4E487B7100000000000000000000000000000000000000000000000000000000 PUSH1 0x0 MSTORE PUSH1 0x11 PUSH1 0x4 MSTORE PUSH1 0x24 PUSH1 0x0 REVERT JUMPDEST PUSH1 0x0 PUSH2 0xF1F DUP3 PUSH2 0xC9F JUMP JUMPDEST SWAP2 POP PUSH32 0xFFFFFFFFFFFFFFFFFFFFFFFFFFFFFFFFFFFFFFFFFFFFFFFFFFFFFFFFFFFFFFFF DUP3 SUB PUSH2 0xF51 JUMPI PUSH2 0xF50 PUSH2 0xEE5 JUMP JUMPDEST JUMPDEST PUSH1 0x1 DUP3 ADD SWAP1 POP SWAP2 SWAP1 POP JUMP JUMPDEST PUSH1 0x0 DUP2 SWAP1 POP SWAP3 SWAP2 POP POP JUMP JUMPDEST PUSH1 0x0 PUSH2 0xF72 DUP3 PUSH2 0x749 JUMP JUMPDEST PUSH2 0xF7C DUP2 DUP6 PUSH2 0xF5C JUMP JUMPDEST SWAP4 POP PUSH2 0xF8C DUP2 DUP6 PUSH1 0x20 DUP7 ADD PUSH2 0x765 JUMP JUMPDEST DUP1 DUP5 ADD SWAP2 POP POP SWAP3 SWAP2 POP POP JUMP JUMPDEST PUSH1 0x0 PUSH2 0xFA4 DUP3 DUP5 PUSH2 0xF67 JUMP JUMPDEST SWAP2 POP DUP2 SWAP1 POP SWAP3 SWAP2 POP POP JUMP JUMPDEST PUSH1 0x0 DUP3 DUP3 MSTORE PUSH1 0x20 DUP3 ADD SWAP1 POP SWAP3 SWAP2 POP POP JUMP JUMPDEST PUSH32 0x596F75206861766520616C726561647920766F74656400000000000000000000 PUSH1 0x0 DUP3 ADD MSTORE POP JUMP JUMPDEST PUSH1 0x0 PUSH2 0xFF6 PUSH1 0x16 DUP4 PUSH2 0xFAF JUMP JUMPDEST SWAP2 POP PUSH2 0x1001 DUP3 PUSH2 0xFC0 JUMP JUMPDEST PUSH1 0x20 DUP3 ADD SWAP1 POP SWAP2 SWAP1 POP JUMP JUMPDEST PUSH1 0x0 PUSH1 0x20 DUP3 ADD SWAP1 POP DUP2 DUP2 SUB PUSH1 0x0 DUP4 ADD MSTORE PUSH2 0x1025 DUP2 PUSH2 0xFE9 JUMP JUMPDEST SWAP1 POP SWAP2 SWAP1 POP JUMP JUMPDEST PUSH1 0x0 DUP2 SWAP1 POP DUP2 PUSH1 0x0 MSTORE PUSH1 0x20 PUSH1 0x0 KECCAK256 SWAP1 POP SWAP2 SWAP1 POP JUMP JUMPDEST PUSH1 0x0 PUSH1 0x20 PUSH1 0x1F DUP4 ADD DIV SWAP1 POP SWAP2 SWAP1 POP JUMP JUMPDEST PUSH1 0x0 DUP3 DUP3 SHL SWAP1 POP SWAP3 SWAP2 POP POP JUMP JUMPDEST PUSH1 0x0 PUSH1 0x8 DUP4 MUL PUSH2 0x108E PUSH32 0xFFFFFFFFFFFFFFFFFFFFFFFFFFFFFFFFFFFFFFFFFFFFFFFFFFFFFFFFFFFFFFFF DUP3 PUSH2 0x1051 JUMP JUMPDEST PUSH2 0x1098 DUP7 DUP4 PUSH2 0x1051 JUMP JUMPDEST SWAP6 POP DUP1 NOT DUP5 AND SWAP4 POP DUP1 DUP7 AND DUP5 OR SWAP3 POP POP POP SWAP4 SWAP3 POP POP POP JUMP JUMPDEST PUSH1 0x0 DUP2 SWAP1 POP SWAP2 SWAP1 POP JUMP JUMPDEST PUSH1 0x0 PUSH2 0x10D5 PUSH2 0x10D0 PUSH2 0x10CB DUP5 PUSH2 0xC9F JUMP JUMPDEST PUSH2 0x10B0 JUMP JUMPDEST PUSH2 0xC9F JUMP JUMPDEST SWAP1 POP SWAP2 SWAP1 POP JUMP JUMPDEST PUSH1 0x0 DUP2 SWAP1 POP SWAP2 SWAP1 POP JUMP JUMPDEST PUSH2 0x10EF DUP4 PUSH2 0x10BA JUMP JUMPDEST PUSH2 0x1103 PUSH2 0x10FB DUP3 PUSH2 0x10DC JUMP JUMPDEST DUP5 DUP5 SLOAD PUSH2 0x105E JUMP JUMPDEST DUP3 SSTORE POP POP POP POP JUMP JUMPDEST PUSH1 0x0 SWAP1 JUMP JUMPDEST PUSH2 0x1118 PUSH2 0x110B JUMP JUMPDEST PUSH2 0x1123 DUP2 DUP5 DUP5 PUSH2 0x10E6 JUMP JUMPDEST POP POP POP JUMP JUMPDEST JUMPDEST DUP2 DUP2 LT ISZERO PUSH2 0x1147 JUMPI PUSH2 0x113C PUSH1 0x0 DUP3 PUSH2 0x1110 JUMP JUMPDEST PUSH1 0x1 DUP2 ADD SWAP1 POP PUSH2 0x1129 JUMP JUMPDEST POP POP JUMP JUMPDEST PUSH1 0x1F DUP3 GT ISZERO PUSH2 0x118C JUMPI PUSH2 0x115D DUP2 PUSH2 0x102C JUMP JUMPDEST PUSH2 0x1166 DUP5 PUSH2 0x1041 JUMP JUMPDEST DUP2 ADD PUSH1 0x20 DUP6 LT ISZERO PUSH2 0x1175 JUMPI DUP2 SWAP1 POP JUMPDEST PUSH2 0x1189 PUSH2 0x1181 DUP6 PUSH2 0x1041 JUMP JUMPDEST DUP4 ADD DUP3 PUSH2 0x1128 JUMP JUMPDEST POP POP JUMPDEST POP POP POP JUMP JUMPDEST PUSH1 0x0 DUP3 DUP3 SHR SWAP1 POP SWAP3 SWAP2 POP POP JUMP JUMPDEST PUSH1 0x0 PUSH2 0x11AF PUSH1 0x0 NOT DUP5 PUSH1 0x8 MUL PUSH2 0x1191 JUMP JUMPDEST NOT DUP1 DUP4 AND SWAP2 POP POP SWAP3 SWAP2 POP POP JUMP JUMPDEST PUSH1 0x0 PUSH2 0x11C8 DUP4 DUP4 PUSH2 0x119E JUMP JUMPDEST SWAP2 POP DUP3 PUSH1 0x2 MUL DUP3 OR SWAP1 POP SWAP3 SWAP2 POP POP JUMP JUMPDEST PUSH2 0x11E1 DUP3 PUSH2 0x749 JUMP JUMPDEST PUSH8 0xFFFFFFFFFFFFFFFF DUP2 GT ISZERO PUSH2 0x11FA JUMPI PUSH2 0x11F9 PUSH2 0x928 JUMP JUMPDEST JUMPDEST PUSH2 0x1204 DUP3 SLOAD PUSH2 0xE85 JUMP JUMPDEST PUSH2 0x120F DUP3 DUP3 DUP6 PUSH2 0x114B JUMP JUMPDEST PUSH1 0x0 PUSH1 0x20 SWAP1 POP PUSH1 0x1F DUP4 GT PUSH1 0x1 DUP2 EQ PUSH2 0x1242 JUMPI PUSH1 0x0 DUP5 ISZERO PUSH2 0x1230 JUMPI DUP3 DUP8 ADD MLOAD SWAP1 POP JUMPDEST PUSH2 0x123A DUP6 DUP3 PUSH2 0x11BC JUMP JUMPDEST DUP7 SSTORE POP PUSH2 0x12A2 JUMP JUMPDEST PUSH1 0x1F NOT DUP5 AND PUSH2 0x1250 DUP7 PUSH2 0x102C JUMP JUMPDEST PUSH1 0x0 JUMPDEST DUP3 DUP2 LT ISZERO PUSH2 0x1278 JUMPI DUP5 DUP10 ADD MLOAD DUP3 SSTORE PUSH1 0x1 DUP3 ADD SWAP2 POP PUSH1 0x20 DUP6 ADD SWAP5 POP PUSH1 0x20 DUP2 ADD SWAP1 POP PUSH2 0x1253 JUMP JUMPDEST DUP7 DUP4 LT ISZERO PUSH2 0x1295 JUMPI DUP5 DUP10 ADD MLOAD PUSH2 0x1291 PUSH1 0x1F DUP10 AND DUP3 PUSH2 0x119E JUMP JUMPDEST DUP4 SSTORE POP JUMPDEST PUSH1 0x1 PUSH1 0x2 DUP9 MUL ADD DUP9 SSTORE POP POP POP JUMPDEST POP POP POP POP POP POP JUMP JUMPDEST PUSH1 0x0 DUP2 SLOAD PUSH2 0x12B7 DUP2 PUSH2 0xE85 JUMP JUMPDEST PUSH2 0x12C1 DUP2 DUP7 PUSH2 0xF5C JUMP JUMPDEST SWAP5 POP PUSH1 0x1 DUP3 AND PUSH1 0x0 DUP2 EQ PUSH2 0x12DC JUMPI PUSH1 0x1 DUP2 EQ PUSH2 0x12F1 JUMPI PUSH2 0x1324 JUMP JUMPDEST PUSH1 0xFF NOT DUP4 AND DUP7 MSTORE DUP2 ISZERO ISZERO DUP3 MUL DUP7 ADD SWAP4 POP PUSH2 0x1324 JUMP JUMPDEST PUSH2 0x12FA DUP6 PUSH2 0x102C JUMP JUMPDEST PUSH1 0x0 JUMPDEST DUP4 DUP2 LT ISZERO PUSH2 0x131C JUMPI DUP2 SLOAD DUP2 DUP10 ADD MSTORE PUSH1 0x1 DUP3 ADD SWAP2 POP PUSH1 0x20 DUP2 ADD SWAP1 POP PUSH2 0x12FD JUMP JUMPDEST DUP4 DUP9 ADD SWAP6 POP POP POP JUMPDEST POP POP POP SWAP3 SWAP2 POP POP JUMP JUMPDEST PUSH1 0x0 PUSH2 0x1339 DUP3 DUP5 PUSH2 0x12AA JUMP JUMPDEST SWAP2 POP DUP2 SWAP1 POP SWAP3 SWAP2 POP POP JUMP INVALID LOG2 PUSH5 0x6970667358 0x22 SLT KECCAK256 SAR CHAINID SWAP4 0xD4 0xB3 PUSH25 0x54BC9F09E82596F3D637E4925530051A678F7494589568D61 0xB9 PUSH5 0x736F6C6343 STOP ADDMOD SLT STOP CALLER "},"methodIdentifiers":{"getCountOfVotes(string)":"78a1cd6d","getVoteCheck(string)":"7d6c999c","getVotes()":"0dc96015","giveVote(string,string)":"2bc83fb1","voteCheck(string,uint256)":"9e5cba4d","voterExists(address[],address)":"0fbeee81"}}}}}